{
  "contractName": "ERC165",
  "abi": [
    {
      "inputs": [],
      "stateMutability": "nonpayable",
      "type": "constructor"
    },
    {
      "inputs": [
        {
          "internalType": "bytes4",
          "name": "interfaceId",
          "type": "bytes4"
        }
      ],
      "name": "supportsInterface",
      "outputs": [
        {
          "internalType": "bool",
          "name": "",
          "type": "bool"
        }
      ],
      "stateMutability": "view",
      "type": "function"
    },
    {
      "inputs": [
        {
          "internalType": "bytes4",
          "name": "interfaceId",
          "type": "bytes4"
        }
      ],
      "name": "_registerInterface",
      "outputs": [],
      "stateMutability": "nonpayable",
      "type": "function"
    }
  ],
  "bytecode": "0x608060405234801561001057600080fd5b506100407f01ffc9a7a5cef8baa21ed3c5c0d7e23accb804b619e9333b597f47a0d84076e261004560201b60201c565b61018b565b63ffffffff60e01b817bffffffffffffffffffffffffffffffffffffffffffffffffffffffff191614156100ae576040517f08c379a00000000000000000000000000000000000000000000000000000000081526004016100a59061015a565b60405180910390fd5b6001600080837bffffffffffffffffffffffffffffffffffffffffffffffffffffffff19167bffffffffffffffffffffffffffffffffffffffffffffffffffffffff1916815260200190815260200160002060006101000a81548160ff02191690831515021790555050565b600061012760198361017a565b91507f4552433136353a20496e76616c696420696e74657266616365000000000000006000830152602082019050919050565b600060208201905081810360008301526101738161011a565b9050919050565b600082825260208201905092915050565b6103218061019a6000396000f3fe608060405234801561001057600080fd5b50600436106100365760003560e01c806301ffc9a71461003b578063068417d91461006b575b600080fd5b610055600480360381019061005091906101d8565b610087565b6040516100629190610250565b60405180910390f35b610085600480360381019061008091906101d8565b6100ee565b005b6000806000837bffffffffffffffffffffffffffffffffffffffffffffffffffffffff19167bffffffffffffffffffffffffffffffffffffffffffffffffffffffff1916815260200190815260200160002060009054906101000a900460ff169050919050565b63ffffffff60e01b817bffffffffffffffffffffffffffffffffffffffffffffffffffffffff19161415610157576040517f08c379a000000000000000000000000000000000000000000000000000000000815260040161014e9061026b565b60405180910390fd5b6001600080837bffffffffffffffffffffffffffffffffffffffffffffffffffffffff19167bffffffffffffffffffffffffffffffffffffffffffffffffffffffff1916815260200190815260200160002060006101000a81548160ff02191690831515021790555050565b6000813590506101d2816102d4565b92915050565b6000602082840312156101ea57600080fd5b60006101f8848285016101c3565b91505092915050565b61020a8161029c565b82525050565b600061021d60198361028b565b91507f4552433136353a20496e76616c696420696e74657266616365000000000000006000830152602082019050919050565b60006020820190506102656000830184610201565b92915050565b6000602082019050818103600083015261028481610210565b9050919050565b600082825260208201905092915050565b60008115159050919050565b60007fffffffff0000000000000000000000000000000000000000000000000000000082169050919050565b6102dd816102a8565b81146102e857600080fd5b5056fea26469706673582212203d217b065cc91ae2c72bded6c5e98dec11f4da2d91d7bc04ba18091c458f5d2164736f6c63430008000033",
  "immutableReferences": {},
  "source": "// SPDX-License-Identifier: MIT\r\npragma solidity ^0.8.0;\r\n\r\nimport \"./interfaces/IERC165.sol\";\r\n\r\ncontract ERC165 is IERC165 {\r\n    mapping(bytes4 => bool) private _supportedInterfaces;\r\n\r\n\r\n    constructor() {\r\n        _registerInterface(bytes4(keccak256('supportsInterface(bytes4)')));\r\n    }\r\n\r\n    function supportsInterface(bytes4 interfaceId) external view override returns(bool) {\r\n        return _supportedInterfaces[interfaceId];\r\n    }\r\n\r\n    function _registerInterface(bytes4 interfaceId) public {\r\n        require(interfaceId != 0xffffffff, \"ERC165: Invalid interface\");\r\n        _supportedInterfaces[interfaceId] = true;\r\n    }\r\n}",
  "sourcePath": "C:\\Users\\Cypherspot\\Documents\\nft-marketplace-starter-kit\\src\\contracts\\ERC165.sol",
  "compiler": {
    "name": "solc",
    "version": "0.8.0+commit.c7dfd78e.Emscripten.clang"
  },
  "schemaVersion": "3.4.5",
  "updatedAt": "2022-03-16T18:30:28.033Z",
  "devdoc": {
    "kind": "dev",
    "methods": {},
    "version": 1
  },
  "userdoc": {
    "kind": "user",
    "methods": {},
    "version": 1
  }
}