{
  "contractName": "ERC721Connector",
  "abi": [
    {
      "inputs": [
        {
          "internalType": "string",
          "name": "name",
          "type": "string"
        },
        {
          "internalType": "string",
          "name": "symbol",
          "type": "string"
        }
      ],
      "stateMutability": "nonpayable",
      "type": "constructor"
    },
    {
      "anonymous": false,
      "inputs": [
        {
          "indexed": true,
          "internalType": "address",
          "name": "_owner",
          "type": "address"
        },
        {
          "indexed": true,
          "internalType": "address",
          "name": "_approved",
          "type": "address"
        },
        {
          "indexed": true,
          "internalType": "uint256",
          "name": "_tokenId",
          "type": "uint256"
        }
      ],
      "name": "Approval",
      "type": "event"
    },
    {
      "anonymous": false,
      "inputs": [
        {
          "indexed": true,
          "internalType": "address",
          "name": "_from",
          "type": "address"
        },
        {
          "indexed": true,
          "internalType": "address",
          "name": "_to",
          "type": "address"
        },
        {
          "indexed": true,
          "internalType": "uint256",
          "name": "_tokenId",
          "type": "uint256"
        }
      ],
      "name": "Transfer",
      "type": "event"
    },
    {
      "inputs": [
        {
          "internalType": "bytes4",
          "name": "interfaceId",
          "type": "bytes4"
        }
      ],
      "name": "_registerInterface",
      "outputs": [],
      "stateMutability": "nonpayable",
      "type": "function"
    },
    {
      "inputs": [
        {
          "internalType": "address",
          "name": "_to",
          "type": "address"
        },
        {
          "internalType": "uint256",
          "name": "_tokenId",
          "type": "uint256"
        }
      ],
      "name": "approve",
      "outputs": [],
      "stateMutability": "nonpayable",
      "type": "function"
    },
    {
      "inputs": [
        {
          "internalType": "address",
          "name": "_owner",
          "type": "address"
        }
      ],
      "name": "balanceOf",
      "outputs": [
        {
          "internalType": "uint256",
          "name": "",
          "type": "uint256"
        }
      ],
      "stateMutability": "view",
      "type": "function"
    },
    {
      "inputs": [],
      "name": "name",
      "outputs": [
        {
          "internalType": "string",
          "name": "",
          "type": "string"
        }
      ],
      "stateMutability": "view",
      "type": "function"
    },
    {
      "inputs": [
        {
          "internalType": "uint256",
          "name": "_tokenId",
          "type": "uint256"
        }
      ],
      "name": "ownerOf",
      "outputs": [
        {
          "internalType": "address",
          "name": "",
          "type": "address"
        }
      ],
      "stateMutability": "view",
      "type": "function"
    },
    {
      "inputs": [
        {
          "internalType": "bytes4",
          "name": "interfaceId",
          "type": "bytes4"
        }
      ],
      "name": "supportsInterface",
      "outputs": [
        {
          "internalType": "bool",
          "name": "",
          "type": "bool"
        }
      ],
      "stateMutability": "view",
      "type": "function"
    },
    {
      "inputs": [],
      "name": "symbol",
      "outputs": [
        {
          "internalType": "string",
          "name": "",
          "type": "string"
        }
      ],
      "stateMutability": "view",
      "type": "function"
    },
    {
      "inputs": [
        {
          "internalType": "uint256",
          "name": "_index",
          "type": "uint256"
        }
      ],
      "name": "tokenByIndex",
      "outputs": [
        {
          "internalType": "uint256",
          "name": "",
          "type": "uint256"
        }
      ],
      "stateMutability": "view",
      "type": "function"
    },
    {
      "inputs": [
        {
          "internalType": "address",
          "name": "_owner",
          "type": "address"
        },
        {
          "internalType": "uint256",
          "name": "_index",
          "type": "uint256"
        }
      ],
      "name": "tokenOfOwnerByIndex",
      "outputs": [
        {
          "internalType": "uint256",
          "name": "",
          "type": "uint256"
        }
      ],
      "stateMutability": "view",
      "type": "function"
    },
    {
      "inputs": [],
      "name": "totalSupply",
      "outputs": [
        {
          "internalType": "uint256",
          "name": "",
          "type": "uint256"
        }
      ],
      "stateMutability": "view",
      "type": "function"
    },
    {
      "inputs": [
        {
          "internalType": "address",
          "name": "_from",
          "type": "address"
        },
        {
          "internalType": "address",
          "name": "_to",
          "type": "address"
        },
        {
          "internalType": "uint256",
          "name": "_tokenId",
          "type": "uint256"
        }
      ],
      "name": "transferFrom",
      "outputs": [],
      "stateMutability": "nonpayable",
      "type": "function"
    }
  ],
  "bytecode": "0x60806040523480156200001157600080fd5b5060405162001c3938038062001c398339818101604052810190620000379190620003dd565b81816200006a7f01ffc9a7a5cef8baa21ed3c5c0d7e23accb804b619e9333b597f47a0d84076e2620001e360201b60201c565b620000bd7f13b182f4c0e5b2efbac0efe6cf6d756c8b89f4b79c5707a043ed9ea740574ee97f7feaf19471f34a12a7eaf32d5f3090aa2260ea8624dc8a138e74e0bf0f62307618620001e360201b60201c565b8160019080519060200190620000d5929190620002bb565b508060029080519060200190620000ee929190620002bb565b505050620001667f22c82707ba960a14c7592ffb6b8cfaa073fed0048a84cc7fa41f6b5bd8e7f2e47f3a6eb71757dfc6e784c1459d26270140c2c147d95ca985c80026fc5301c3eca17f8a7e378434598edc36d108689a030cbc9d7d465de4f74c71bae1028eed6a881b1818620001e360201b60201c565b620001db7f8230223f691b981717299fae9549350a0d894555723531f02108b1f522c1a7977f6da5e1284143cdd2d15038a59bde3be031250f00291d64494c12d967b3a4e0c37f22277f783092ff65775792475f25e3062cade605454ad8c3d14eb84bce9b92741818620001e360201b60201c565b5050620005f6565b63ffffffff60e01b817bffffffffffffffffffffffffffffffffffffffffffffffffffffffff191614156200024f576040517f08c379a0000000000000000000000000000000000000000000000000000000008152600401620002469062000492565b60405180910390fd5b6001600080837bffffffffffffffffffffffffffffffffffffffffffffffffffffffff19167bffffffffffffffffffffffffffffffffffffffffffffffffffffffff1916815260200190815260200160002060006101000a81548160ff02191690831515021790555050565b828054620002c99062000562565b90600052602060002090601f016020900481019282620002ed576000855562000339565b82601f106200030857805160ff191683800117855562000339565b8280016001018555821562000339579182015b82811115620003385782518255916020019190600101906200031b565b5b5090506200034891906200034c565b5090565b5b80821115620003675760008160009055506001016200034d565b5090565b6000620003826200037c84620004e8565b620004b4565b9050828152602081018484840111156200039b57600080fd5b620003a88482856200052c565b509392505050565b600082601f830112620003c257600080fd5b8151620003d48482602086016200036b565b91505092915050565b60008060408385031215620003f157600080fd5b600083015167ffffffffffffffff8111156200040c57600080fd5b6200041a85828601620003b0565b925050602083015167ffffffffffffffff8111156200043857600080fd5b6200044685828601620003b0565b9150509250929050565b60006200045f6019836200051b565b91507f4552433136353a20496e76616c696420696e74657266616365000000000000006000830152602082019050919050565b60006020820190508181036000830152620004ad8162000450565b9050919050565b6000604051905081810181811067ffffffffffffffff82111715620004de57620004dd620005c7565b5b8060405250919050565b600067ffffffffffffffff821115620005065762000505620005c7565b5b601f19601f8301169050602081019050919050565b600082825260208201905092915050565b60005b838110156200054c5780820151818401526020810190506200052f565b838111156200055c576000848401525b50505050565b600060028204905060018216806200057b57607f821691505b6020821081141562000592576200059162000598565b5b50919050565b7f4e487b7100000000000000000000000000000000000000000000000000000000600052602260045260246000fd5b7f4e487b7100000000000000000000000000000000000000000000000000000000600052604160045260246000fd5b61163380620006066000396000f3fe608060405234801561001057600080fd5b50600436106100a95760003560e01c806323b872dd1161007157806323b872dd146101525780632f745c591461016e5780634f6ccce71461019e5780636352211e146101ce57806370a08231146101fe57806395d89b411461022e576100a9565b806301ffc9a7146100ae578063068417d9146100de57806306fdde03146100fa578063095ea7b31461011857806318160ddd14610134575b600080fd5b6100c860048036038101906100c39190610e21565b61024c565b6040516100d59190611232565b60405180910390f35b6100f860048036038101906100f39190610e21565b6102b3565b005b610102610388565b60405161010f919061124d565b60405180910390f35b610132600480360381019061012d9190610de5565b61041a565b005b61013c6105be565b60405161014991906113af565b60405180910390f35b61016c60048036038101906101679190610d96565b6105cb565b005b61018860048036038101906101839190610de5565b6105ee565b60405161019591906113af565b60405180910390f35b6101b860048036038101906101b39190610e4a565b6106c4565b6040516101c591906113af565b60405180910390f35b6101e860048036038101906101e39190610e4a565b61075b565b6040516101f59190611217565b60405180910390f35b61021860048036038101906102139190610d6d565b61080d565b60405161022591906113af565b60405180910390f35b6102366108cc565b604051610243919061124d565b60405180910390f35b6000806000837bffffffffffffffffffffffffffffffffffffffffffffffffffffffff19167bffffffffffffffffffffffffffffffffffffffffffffffffffffffff1916815260200190815260200160002060009054906101000a900460ff169050919050565b63ffffffff60e01b817bffffffffffffffffffffffffffffffffffffffffffffffffffffffff1916141561031c576040517f08c379a00000000000000000000000000000000000000000000000000000000081526004016103139061138f565b60405180910390fd5b6001600080837bffffffffffffffffffffffffffffffffffffffffffffffffffffffff19167bffffffffffffffffffffffffffffffffffffffffffffffffffffffff1916815260200190815260200160002060006101000a81548160ff02191690831515021790555050565b60606001805461039790611517565b80601f01602080910402602001604051908101604052809291908181526020018280546103c390611517565b80156104105780601f106103e557610100808354040283529160200191610410565b820191906000526020600020905b8154815290600101906020018083116103f357829003601f168201915b5050505050905090565b60006104258261075b565b90508073ffffffffffffffffffffffffffffffffffffffff168373ffffffffffffffffffffffffffffffffffffffff161415610496576040517f08c379a000000000000000000000000000000000000000000000000000000000815260040161048d906112ef565b60405180910390fd5b61049f8261075b565b73ffffffffffffffffffffffffffffffffffffffff163373ffffffffffffffffffffffffffffffffffffffff161461050c576040517f08c379a00000000000000000000000000000000000000000000000000000000081526004016105039061134f565b60405180910390fd5b826005600084815260200190815260200160002060006101000a81548173ffffffffffffffffffffffffffffffffffffffff021916908373ffffffffffffffffffffffffffffffffffffffff160217905550818373ffffffffffffffffffffffffffffffffffffffff168273ffffffffffffffffffffffffffffffffffffffff167f8c5be1e5ebec7d5bd14f71427d1e84f3dd0314c0f7b2291e5b200ac8c7c3b92560405160405180910390a4505050565b6000600680549050905090565b6105d5338261095e565b6105de57600080fd5b6105e98383836109ed565b505050565b60006105f98361080d565b821061063a576040517f08c379a00000000000000000000000000000000000000000000000000000000081526004016106319061136f565b60405180910390fd5b600860008473ffffffffffffffffffffffffffffffffffffffff1673ffffffffffffffffffffffffffffffffffffffff16815260200190815260200160002082815481106106b1577f4e487b7100000000000000000000000000000000000000000000000000000000600052603260045260246000fd5b9060005260206000200154905092915050565b60006106ce6105be565b821061070f576040517f08c379a00000000000000000000000000000000000000000000000000000000081526004016107069061132f565b60405180910390fd5b60068281548110610749577f4e487b7100000000000000000000000000000000000000000000000000000000600052603260045260246000fd5b90600052602060002001549050919050565b6000806003600084815260200190815260200160002060009054906101000a900473ffffffffffffffffffffffffffffffffffffffff169050600073ffffffffffffffffffffffffffffffffffffffff168173ffffffffffffffffffffffffffffffffffffffff161415610804576040517f08c379a00000000000000000000000000000000000000000000000000000000081526004016107fb9061126f565b60405180910390fd5b80915050919050565b60008073ffffffffffffffffffffffffffffffffffffffff168273ffffffffffffffffffffffffffffffffffffffff16141561087e576040517f08c379a00000000000000000000000000000000000000000000000000000000081526004016108759061126f565b60405180910390fd5b6108c5600460008473ffffffffffffffffffffffffffffffffffffffff1673ffffffffffffffffffffffffffffffffffffffff168152602001908152602001600020610c13565b9050919050565b6060600280546108db90611517565b80601f016020809104026020016040519081016040528092919081815260200182805461090790611517565b80156109545780601f1061092957610100808354040283529160200191610954565b820191906000526020600020905b81548152906001019060200180831161093757829003601f168201915b5050505050905090565b600061096982610c21565b6109a8576040517f08c379a000000000000000000000000000000000000000000000000000000000815260040161099f906112af565b60405180910390fd5b60006109b38361075b565b90508373ffffffffffffffffffffffffffffffffffffffff168173ffffffffffffffffffffffffffffffffffffffff161491505092915050565b600073ffffffffffffffffffffffffffffffffffffffff168273ffffffffffffffffffffffffffffffffffffffff161415610a5d576040517f08c379a0000000000000000000000000000000000000000000000000000000008152600401610a549061128f565b60405180910390fd5b8273ffffffffffffffffffffffffffffffffffffffff16610a7d8261075b565b73ffffffffffffffffffffffffffffffffffffffff1614610ad3576040517f08c379a0000000000000000000000000000000000000000000000000000000008152600401610aca906112cf565b60405180910390fd5b610b1a600460008573ffffffffffffffffffffffffffffffffffffffff1673ffffffffffffffffffffffffffffffffffffffff168152602001908152602001600020610c93565b610b61600460008473ffffffffffffffffffffffffffffffffffffffff1673ffffffffffffffffffffffffffffffffffffffff168152602001908152602001600020610cb6565b816003600083815260200190815260200160002060006101000a81548173ffffffffffffffffffffffffffffffffffffffff021916908373ffffffffffffffffffffffffffffffffffffffff160217905550808273ffffffffffffffffffffffffffffffffffffffff168473ffffffffffffffffffffffffffffffffffffffff167fddf252ad1be2c89b69c2b068fc378daa952ba7f163c4a11628f55a4df523b3ef60405160405180910390a4505050565b600081600001549050919050565b6000806003600084815260200190815260200160002060009054906101000a900473ffffffffffffffffffffffffffffffffffffffff169050600073ffffffffffffffffffffffffffffffffffffffff168173ffffffffffffffffffffffffffffffffffffffff161415915050919050565b610cab60018260000154610cd590919063ffffffff16565b816000018190555050565b6001816000016000828254610ccb91906113e6565b9250508190555050565b600081831015610d1a576040517f08c379a0000000000000000000000000000000000000000000000000000000008152600401610d119061130f565b60405180910390fd5b8183610d26919061143c565b905092915050565b600081359050610d3d816115b8565b92915050565b600081359050610d52816115cf565b92915050565b600081359050610d67816115e6565b92915050565b600060208284031215610d7f57600080fd5b6000610d8d84828501610d2e565b91505092915050565b600080600060608486031215610dab57600080fd5b6000610db986828701610d2e565b9350506020610dca86828701610d2e565b9250506040610ddb86828701610d58565b9150509250925092565b60008060408385031215610df857600080fd5b6000610e0685828601610d2e565b9250506020610e1785828601610d58565b9150509250929050565b600060208284031215610e3357600080fd5b6000610e4184828501610d43565b91505092915050565b600060208284031215610e5c57600080fd5b6000610e6a84828501610d58565b91505092915050565b610e7c81611470565b82525050565b610e8b81611482565b82525050565b6000610e9c826113ca565b610ea681856113d5565b9350610eb68185602086016114e4565b610ebf816115a7565b840191505092915050565b6000610ed76022836113d5565b91507f6f776e657220717565727920666f72206e6f6e2d6578697374656e7420746f6b60008301527f656e0000000000000000000000000000000000000000000000000000000000006020830152604082019050919050565b6000610f3d602d836113d5565b91507f4572726f723a20455243373231207472616e73666572696e6720746f2074686560008301527f207a65726f2061646472657373000000000000000000000000000000000000006020830152604082019050919050565b6000610fa3601c836113d5565b91507f4572726f723a20746f6b656e20646f6573206e6f7420657869737473000000006000830152602082019050919050565b6000610fe36038836113d5565b91507f4572726f723a20455243373231207472616e73666572696e6720746f6b656e2060008301527f746865206164647265737320646f6573206e6f74206f776e00000000000000006020830152604082019050919050565b60006110496021836113d5565b91507f4572726f723a20617070726f76616c20746f2063757272656e74206f776e657260008301527f21000000000000000000000000000000000000000000000000000000000000006020830152604082019050919050565b60006110af601e836113d5565b91507f536166654d6174683a205375627472616374696f6e206f766572666c6f7700006000830152602082019050919050565b60006110ef601e836113d5565b91507f476c6f62616c20696e646578206973206f7574206f6620626f756e64732100006000830152602082019050919050565b600061112f6033836113d5565b91507f4572726f723a2063757272656e742063616c6c6572206973206e6f742074686560008301527f206f776e6572206f662074686520746f6b656e000000000000000000000000006020830152604082019050919050565b6000611195601d836113d5565b91507f4f776e657220696e646578206973206f7574206f6620626f756e6473210000006000830152602082019050919050565b60006111d56019836113d5565b91507f4552433136353a20496e76616c696420696e74657266616365000000000000006000830152602082019050919050565b611211816114da565b82525050565b600060208201905061122c6000830184610e73565b92915050565b60006020820190506112476000830184610e82565b92915050565b600060208201905081810360008301526112678184610e91565b905092915050565b6000602082019050818103600083015261128881610eca565b9050919050565b600060208201905081810360008301526112a881610f30565b9050919050565b600060208201905081810360008301526112c881610f96565b9050919050565b600060208201905081810360008301526112e881610fd6565b9050919050565b600060208201905081810360008301526113088161103c565b9050919050565b60006020820190508181036000830152611328816110a2565b9050919050565b60006020820190508181036000830152611348816110e2565b9050919050565b6000602082019050818103600083015261136881611122565b9050919050565b6000602082019050818103600083015261138881611188565b9050919050565b600060208201905081810360008301526113a8816111c8565b9050919050565b60006020820190506113c46000830184611208565b92915050565b600081519050919050565b600082825260208201905092915050565b60006113f1826114da565b91506113fc836114da565b9250827fffffffffffffffffffffffffffffffffffffffffffffffffffffffffffffffff0382111561143157611430611549565b5b828201905092915050565b6000611447826114da565b9150611452836114da565b92508282101561146557611464611549565b5b828203905092915050565b600061147b826114ba565b9050919050565b60008115159050919050565b60007fffffffff0000000000000000000000000000000000000000000000000000000082169050919050565b600073ffffffffffffffffffffffffffffffffffffffff82169050919050565b6000819050919050565b60005b838110156115025780820151818401526020810190506114e7565b83811115611511576000848401525b50505050565b6000600282049050600182168061152f57607f821691505b6020821081141561154357611542611578565b5b50919050565b7f4e487b7100000000000000000000000000000000000000000000000000000000600052601160045260246000fd5b7f4e487b7100000000000000000000000000000000000000000000000000000000600052602260045260246000fd5b6000601f19601f8301169050919050565b6115c181611470565b81146115cc57600080fd5b50565b6115d88161148e565b81146115e357600080fd5b50565b6115ef816114da565b81146115fa57600080fd5b5056fea2646970667358221220ffb237dc9ffb4550a34bff7639dc89580df15d1add0b7124eeb093ac56933fc864736f6c63430008000033",
  "immutableReferences": {},
  "source": "// SPDX-License-Identifier: MIT\r\npragma solidity ^0.8.0;\r\n\r\nimport \"./ERC721Metadata.sol\";\r\nimport \"./ERC721Enumerable.sol\";\r\n\r\ncontract ERC721Connector is ERC721Metadata, ERC721Enumerable {\r\n    \r\n    constructor(string memory name, string memory symbol) ERC721Metadata(name, symbol) {\r\n\r\n    }\r\n}",
  "sourcePath": "C:\\Users\\Cypherspot\\Documents\\nft-marketplace-starter-kit\\src\\contracts\\ERC721Connector.sol",
  "compiler": {
    "name": "solc",
    "version": "0.8.0+commit.c7dfd78e.Emscripten.clang"
  },
  "schemaVersion": "3.4.5",
  "updatedAt": "2022-03-16T20:37:32.288Z",
  "devdoc": {
    "kind": "dev",
    "methods": {
      "balanceOf(address)": {
        "details": "NFTs assigned to the zero address are considered invalid, and this  function throws for queries about the zero address.",
        "params": {
          "_owner": "An address for whom to query the balance"
        },
        "returns": {
          "_0": "The number of NFTs owned by `_owner`, possibly zero"
        }
      },
      "ownerOf(uint256)": {
        "details": "NFTs assigned to zero address are considered invalid, and queries  about them do throw.",
        "params": {
          "_tokenId": "The identifier for an NFT"
        },
        "returns": {
          "_0": "The address of the owner of the NFT"
        }
      },
      "totalSupply()": {
        "returns": {
          "_0": "A count of valid NFTs tracked by this contract, where each one of  them has an assigned and queryable owner not equal to the zero address"
        }
      },
      "transferFrom(address,address,uint256)": {
        "details": "Throws unless `msg.sender` is the current owner, an authorized  operator, or the approved address for this NFT. Throws if `_from` is  not the current owner. Throws if `_to` is the zero address. Throws if  `_tokenId` is not a valid NFT.",
        "params": {
          "_from": "The current owner of the NFT",
          "_to": "The new owner",
          "_tokenId": "The NFT to transfer"
        }
      }
    },
    "version": 1
  },
  "userdoc": {
    "kind": "user",
    "methods": {
      "balanceOf(address)": {
        "notice": "Count all NFTs assigned to an owner"
      },
      "name()": {
        "notice": "A descriptive name for a collection of NFTs in this contract"
      },
      "ownerOf(uint256)": {
        "notice": "Find the owner of an NFT"
      },
      "symbol()": {
        "notice": "An abbreviated name for NFTs in this contract"
      },
      "tokenByIndex(uint256)": {
        "notice": "Enumerate valid NFTs  Throws if `_index` >= `totalSupply()`. A counter less than `totalSupply()` The token identifier for the `_index`th NFT,  (sort order not specified)"
      },
      "tokenOfOwnerByIndex(address,uint256)": {
        "notice": "Enumerate NFTs assigned to an owner Throws if `_index` >= `balanceOf(_owner)` or if `_owner` is the zero address, representing invalid NFTs. An address where we are interested in NFTs owned by them  A counter less than `balanceOf(_owner)` The token identifier for the `_index`th NFT assigned to `_owner`,   (sort order not specified)"
      },
      "totalSupply()": {
        "notice": "Count NFTs tracked by this contract"
      },
      "transferFrom(address,address,uint256)": {
        "notice": "Transfer ownership of an NFT -- THE CALLER IS RESPONSIBLE  TO CONFIRM THAT `_to` IS CAPABLE OF RECEIVING NFTS OR ELSE  THEY MAY BE PERMANENTLY LOST"
      }
    },
    "version": 1
  }
}