{
  "contractName": "ERC721Metadata",
  "abi": [
    {
      "inputs": [
        {
          "internalType": "string",
          "name": "named",
          "type": "string"
        },
        {
          "internalType": "string",
          "name": "symbolified",
          "type": "string"
        }
      ],
      "stateMutability": "nonpayable",
      "type": "constructor"
    },
    {
      "inputs": [
        {
          "internalType": "bytes4",
          "name": "interfaceId",
          "type": "bytes4"
        }
      ],
      "name": "_registerInterface",
      "outputs": [],
      "stateMutability": "nonpayable",
      "type": "function"
    },
    {
      "inputs": [
        {
          "internalType": "bytes4",
          "name": "interfaceId",
          "type": "bytes4"
        }
      ],
      "name": "supportsInterface",
      "outputs": [
        {
          "internalType": "bool",
          "name": "",
          "type": "bool"
        }
      ],
      "stateMutability": "view",
      "type": "function"
    },
    {
      "inputs": [],
      "name": "name",
      "outputs": [
        {
          "internalType": "string",
          "name": "",
          "type": "string"
        }
      ],
      "stateMutability": "view",
      "type": "function"
    },
    {
      "inputs": [],
      "name": "symbol",
      "outputs": [
        {
          "internalType": "string",
          "name": "",
          "type": "string"
        }
      ],
      "stateMutability": "view",
      "type": "function"
    }
  ],
  "bytecode": "0x60806040523480156200001157600080fd5b5060405162000aba38038062000aba8339818101604052810190620000379190620002ef565b620000687f01ffc9a7a5cef8baa21ed3c5c0d7e23accb804b619e9333b597f47a0d84076e2620000f560201b60201c565b620000bb7f13b182f4c0e5b2efbac0efe6cf6d756c8b89f4b79c5707a043ed9ea740574ee97f7feaf19471f34a12a7eaf32d5f3090aa2260ea8624dc8a138e74e0bf0f62307618620000f560201b60201c565b8160019080519060200190620000d3929190620001cd565b508060029080519060200190620000ec929190620001cd565b50505062000508565b63ffffffff60e01b817bffffffffffffffffffffffffffffffffffffffffffffffffffffffff1916141562000161576040517f08c379a00000000000000000000000000000000000000000000000000000000081526004016200015890620003a4565b60405180910390fd5b6001600080837bffffffffffffffffffffffffffffffffffffffffffffffffffffffff19167bffffffffffffffffffffffffffffffffffffffffffffffffffffffff1916815260200190815260200160002060006101000a81548160ff02191690831515021790555050565b828054620001db9062000474565b90600052602060002090601f016020900481019282620001ff57600085556200024b565b82601f106200021a57805160ff19168380011785556200024b565b828001600101855582156200024b579182015b828111156200024a5782518255916020019190600101906200022d565b5b5090506200025a91906200025e565b5090565b5b80821115620002795760008160009055506001016200025f565b5090565b6000620002946200028e84620003fa565b620003c6565b905082815260208101848484011115620002ad57600080fd5b620002ba8482856200043e565b509392505050565b600082601f830112620002d457600080fd5b8151620002e68482602086016200027d565b91505092915050565b600080604083850312156200030357600080fd5b600083015167ffffffffffffffff8111156200031e57600080fd5b6200032c85828601620002c2565b925050602083015167ffffffffffffffff8111156200034a57600080fd5b6200035885828601620002c2565b9150509250929050565b6000620003716019836200042d565b91507f4552433136353a20496e76616c696420696e74657266616365000000000000006000830152602082019050919050565b60006020820190508181036000830152620003bf8162000362565b9050919050565b6000604051905081810181811067ffffffffffffffff82111715620003f057620003ef620004d9565b5b8060405250919050565b600067ffffffffffffffff821115620004185762000417620004d9565b5b601f19601f8301169050602081019050919050565b600082825260208201905092915050565b60005b838110156200045e57808201518184015260208101905062000441565b838111156200046e576000848401525b50505050565b600060028204905060018216806200048d57607f821691505b60208210811415620004a457620004a3620004aa565b5b50919050565b7f4e487b7100000000000000000000000000000000000000000000000000000000600052602260045260246000fd5b7f4e487b7100000000000000000000000000000000000000000000000000000000600052604160045260246000fd5b6105a280620005186000396000f3fe608060405234801561001057600080fd5b506004361061004c5760003560e01c806301ffc9a714610051578063068417d91461008157806306fdde031461009d57806395d89b41146100bb575b600080fd5b61006b6004803603810190610066919061034e565b6100d9565b60405161007891906103ff565b60405180910390f35b61009b6004803603810190610096919061034e565b610140565b005b6100a5610215565b6040516100b2919061041a565b60405180910390f35b6100c36102a7565b6040516100d0919061041a565b60405180910390f35b6000806000837bffffffffffffffffffffffffffffffffffffffffffffffffffffffff19167bffffffffffffffffffffffffffffffffffffffffffffffffffffffff1916815260200190815260200160002060009054906101000a900460ff169050919050565b63ffffffff60e01b817bffffffffffffffffffffffffffffffffffffffffffffffffffffffff191614156101a9576040517f08c379a00000000000000000000000000000000000000000000000000000000081526004016101a09061043c565b60405180910390fd5b6001600080837bffffffffffffffffffffffffffffffffffffffffffffffffffffffff19167bffffffffffffffffffffffffffffffffffffffffffffffffffffffff1916815260200190815260200160002060006101000a81548160ff02191690831515021790555050565b606060018054610224906104e3565b80601f0160208091040260200160405190810160405280929190818152602001828054610250906104e3565b801561029d5780601f106102725761010080835404028352916020019161029d565b820191906000526020600020905b81548152906001019060200180831161028057829003601f168201915b5050505050905090565b6060600280546102b6906104e3565b80601f01602080910402602001604051908101604052809291908181526020018280546102e2906104e3565b801561032f5780601f106103045761010080835404028352916020019161032f565b820191906000526020600020905b81548152906001019060200180831161031257829003601f168201915b5050505050905090565b60008135905061034881610555565b92915050565b60006020828403121561036057600080fd5b600061036e84828501610339565b91505092915050565b61038081610478565b82525050565b60006103918261045c565b61039b8185610467565b93506103ab8185602086016104b0565b6103b481610544565b840191505092915050565b60006103cc601983610467565b91507f4552433136353a20496e76616c696420696e74657266616365000000000000006000830152602082019050919050565b60006020820190506104146000830184610377565b92915050565b600060208201905081810360008301526104348184610386565b905092915050565b60006020820190508181036000830152610455816103bf565b9050919050565b600081519050919050565b600082825260208201905092915050565b60008115159050919050565b60007fffffffff0000000000000000000000000000000000000000000000000000000082169050919050565b60005b838110156104ce5780820151818401526020810190506104b3565b838111156104dd576000848401525b50505050565b600060028204905060018216806104fb57607f821691505b6020821081141561050f5761050e610515565b5b50919050565b7f4e487b7100000000000000000000000000000000000000000000000000000000600052602260045260246000fd5b6000601f19601f8301169050919050565b61055e81610484565b811461056957600080fd5b5056fea2646970667358221220d40812c33031bd29de0d9a9877f4436f7f43ed37f4b6151f6396aa34f6fd8ac664736f6c63430008000033",
  "immutableReferences": {},
  "source": "// SPDX-License-Identifier: MIT\r\npragma solidity ^0.8.0;\r\n\r\nimport \"./interfaces/IERC721Metadata.sol\";\r\nimport \"./ERC165.sol\";\r\n\r\ncontract ERC721Metadata is IERC721Metadata, ERC165 {\r\n    string private _name;\r\n    string private _symbol;\r\n\r\n    constructor (string memory named, string memory symbolified) {\r\n        _registerInterface(bytes4(keccak256('name(bytes4)')^\r\n        keccak256('symbol(bytes4)')));\r\n        _name = named;\r\n        _symbol = symbolified;\r\n    }\r\n\r\n    function name() external override view returns(string memory)  {\r\n        return _name;\r\n    }\r\n\r\n    function symbol() external override view returns(string memory) {\r\n        return _symbol;\r\n    }\r\n}",
  "sourcePath": "C:\\Users\\Cypherspot\\Documents\\nft-marketplace-starter-kit\\src\\contracts\\ERC721Metadata.sol",
  "compiler": {
    "name": "solc",
    "version": "0.8.0+commit.c7dfd78e.Emscripten.clang"
  },
  "schemaVersion": "3.4.5",
  "updatedAt": "2022-03-16T18:30:28.094Z",
  "devdoc": {
    "kind": "dev",
    "methods": {},
    "version": 1
  },
  "userdoc": {
    "kind": "user",
    "methods": {
      "name()": {
        "notice": "A descriptive name for a collection of NFTs in this contract"
      },
      "symbol()": {
        "notice": "An abbreviated name for NFTs in this contract"
      }
    },
    "version": 1
  }
}