{
  "contractName": "ERC721Enumerable",
  "abi": [
    {
      "inputs": [],
      "stateMutability": "nonpayable",
      "type": "constructor"
    },
    {
      "anonymous": false,
      "inputs": [
        {
          "indexed": true,
          "internalType": "address",
          "name": "_owner",
          "type": "address"
        },
        {
          "indexed": true,
          "internalType": "address",
          "name": "_approved",
          "type": "address"
        },
        {
          "indexed": true,
          "internalType": "uint256",
          "name": "_tokenId",
          "type": "uint256"
        }
      ],
      "name": "Approval",
      "type": "event"
    },
    {
      "anonymous": false,
      "inputs": [
        {
          "indexed": true,
          "internalType": "address",
          "name": "_from",
          "type": "address"
        },
        {
          "indexed": true,
          "internalType": "address",
          "name": "_to",
          "type": "address"
        },
        {
          "indexed": true,
          "internalType": "uint256",
          "name": "_tokenId",
          "type": "uint256"
        }
      ],
      "name": "Transfer",
      "type": "event"
    },
    {
      "inputs": [
        {
          "internalType": "bytes4",
          "name": "interfaceId",
          "type": "bytes4"
        }
      ],
      "name": "_registerInterface",
      "outputs": [],
      "stateMutability": "nonpayable",
      "type": "function"
    },
    {
      "inputs": [
        {
          "internalType": "address",
          "name": "_to",
          "type": "address"
        },
        {
          "internalType": "uint256",
          "name": "_tokenId",
          "type": "uint256"
        }
      ],
      "name": "approve",
      "outputs": [],
      "stateMutability": "nonpayable",
      "type": "function"
    },
    {
      "inputs": [
        {
          "internalType": "address",
          "name": "_owner",
          "type": "address"
        }
      ],
      "name": "balanceOf",
      "outputs": [
        {
          "internalType": "uint256",
          "name": "",
          "type": "uint256"
        }
      ],
      "stateMutability": "view",
      "type": "function"
    },
    {
      "inputs": [
        {
          "internalType": "uint256",
          "name": "_tokenId",
          "type": "uint256"
        }
      ],
      "name": "ownerOf",
      "outputs": [
        {
          "internalType": "address",
          "name": "",
          "type": "address"
        }
      ],
      "stateMutability": "view",
      "type": "function"
    },
    {
      "inputs": [
        {
          "internalType": "bytes4",
          "name": "interfaceId",
          "type": "bytes4"
        }
      ],
      "name": "supportsInterface",
      "outputs": [
        {
          "internalType": "bool",
          "name": "",
          "type": "bool"
        }
      ],
      "stateMutability": "view",
      "type": "function"
    },
    {
      "inputs": [
        {
          "internalType": "address",
          "name": "_from",
          "type": "address"
        },
        {
          "internalType": "address",
          "name": "_to",
          "type": "address"
        },
        {
          "internalType": "uint256",
          "name": "_tokenId",
          "type": "uint256"
        }
      ],
      "name": "transferFrom",
      "outputs": [],
      "stateMutability": "nonpayable",
      "type": "function"
    },
    {
      "inputs": [],
      "name": "totalSupply",
      "outputs": [
        {
          "internalType": "uint256",
          "name": "",
          "type": "uint256"
        }
      ],
      "stateMutability": "view",
      "type": "function"
    },
    {
      "inputs": [
        {
          "internalType": "uint256",
          "name": "_index",
          "type": "uint256"
        }
      ],
      "name": "tokenByIndex",
      "outputs": [
        {
          "internalType": "uint256",
          "name": "",
          "type": "uint256"
        }
      ],
      "stateMutability": "view",
      "type": "function"
    },
    {
      "inputs": [
        {
          "internalType": "address",
          "name": "_owner",
          "type": "address"
        },
        {
          "internalType": "uint256",
          "name": "_index",
          "type": "uint256"
        }
      ],
      "name": "tokenOfOwnerByIndex",
      "outputs": [
        {
          "internalType": "uint256",
          "name": "",
          "type": "uint256"
        }
      ],
      "stateMutability": "view",
      "type": "function"
    }
  ],
  "bytecode": "0x60806040523480156200001157600080fd5b50620000437f01ffc9a7a5cef8baa21ed3c5c0d7e23accb804b619e9333b597f47a0d84076e26200013360201b60201c565b620000b87f22c82707ba960a14c7592ffb6b8cfaa073fed0048a84cc7fa41f6b5bd8e7f2e47f3a6eb71757dfc6e784c1459d26270140c2c147d95ca985c80026fc5301c3eca17f8a7e378434598edc36d108689a030cbc9d7d465de4f74c71bae1028eed6a881b18186200013360201b60201c565b6200012d7f8230223f691b981717299fae9549350a0d894555723531f02108b1f522c1a7977f6da5e1284143cdd2d15038a59bde3be031250f00291d64494c12d967b3a4e0c37f22277f783092ff65775792475f25e3062cade605454ad8c3d14eb84bce9b927418186200013360201b60201c565b62000280565b63ffffffff60e01b817bffffffffffffffffffffffffffffffffffffffffffffffffffffffff191614156200019f576040517f08c379a000000000000000000000000000000000000000000000000000000000815260040162000196906200024d565b60405180910390fd5b6001600080837bffffffffffffffffffffffffffffffffffffffffffffffffffffffff19167bffffffffffffffffffffffffffffffffffffffffffffffffffffffff1916815260200190815260200160002060006101000a81548160ff02191690831515021790555050565b60006200021a6019836200026f565b91507f4552433136353a20496e76616c696420696e74657266616365000000000000006000830152602082019050919050565b6000602082019050818103600083015262000268816200020b565b9050919050565b600082825260208201905092915050565b6112c280620002906000396000f3fe608060405234801561001057600080fd5b50600436106100935760003560e01c806323b872dd1161006657806323b872dd1461011e5780632f745c591461013a5780634f6ccce71461016a5780636352211e1461019a57806370a08231146101ca57610093565b806301ffc9a714610098578063068417d9146100c8578063095ea7b3146100e457806318160ddd14610100575b600080fd5b6100b260048036038101906100ad9190610c1b565b6101fa565b6040516100bf9190610fb3565b60405180910390f35b6100e260048036038101906100dd9190610c1b565b610261565b005b6100fe60048036038101906100f99190610bdf565b610336565b005b6101086104da565b60405161011591906110ee565b60405180910390f35b61013860048036038101906101339190610b90565b6104e7565b005b610154600480360381019061014f9190610bdf565b61050a565b60405161016191906110ee565b60405180910390f35b610184600480360381019061017f9190610c44565b6105e0565b60405161019191906110ee565b60405180910390f35b6101b460048036038101906101af9190610c44565b610677565b6040516101c19190610f98565b60405180910390f35b6101e460048036038101906101df9190610b67565b610729565b6040516101f191906110ee565b60405180910390f35b6000806000837bffffffffffffffffffffffffffffffffffffffffffffffffffffffff19167bffffffffffffffffffffffffffffffffffffffffffffffffffffffff1916815260200190815260200160002060009054906101000a900460ff169050919050565b63ffffffff60e01b817bffffffffffffffffffffffffffffffffffffffffffffffffffffffff191614156102ca576040517f08c379a00000000000000000000000000000000000000000000000000000000081526004016102c1906110ce565b60405180910390fd5b6001600080837bffffffffffffffffffffffffffffffffffffffffffffffffffffffff19167bffffffffffffffffffffffffffffffffffffffffffffffffffffffff1916815260200190815260200160002060006101000a81548160ff02191690831515021790555050565b600061034182610677565b90508073ffffffffffffffffffffffffffffffffffffffff168373ffffffffffffffffffffffffffffffffffffffff1614156103b2576040517f08c379a00000000000000000000000000000000000000000000000000000000081526004016103a99061104e565b60405180910390fd5b6103bb82610677565b73ffffffffffffffffffffffffffffffffffffffff163373ffffffffffffffffffffffffffffffffffffffff1614610428576040517f08c379a000000000000000000000000000000000000000000000000000000000815260040161041f9061108e565b60405180910390fd5b826003600084815260200190815260200160002060006101000a81548173ffffffffffffffffffffffffffffffffffffffff021916908373ffffffffffffffffffffffffffffffffffffffff160217905550818373ffffffffffffffffffffffffffffffffffffffff168273ffffffffffffffffffffffffffffffffffffffff167f8c5be1e5ebec7d5bd14f71427d1e84f3dd0314c0f7b2291e5b200ac8c7c3b92560405160405180910390a4505050565b6000600480549050905090565b6104f133826107e1565b6104fa57600080fd5b610505838383610870565b505050565b600061051583610729565b8210610556576040517f08c379a000000000000000000000000000000000000000000000000000000000815260040161054d906110ae565b60405180910390fd5b600660008473ffffffffffffffffffffffffffffffffffffffff1673ffffffffffffffffffffffffffffffffffffffff16815260200190815260200160002082815481106105cd577f4e487b7100000000000000000000000000000000000000000000000000000000600052603260045260246000fd5b9060005260206000200154905092915050565b60006105ea6104da565b821061062b576040517f08c379a00000000000000000000000000000000000000000000000000000000081526004016106229061106e565b60405180910390fd5b60048281548110610665577f4e487b7100000000000000000000000000000000000000000000000000000000600052603260045260246000fd5b90600052602060002001549050919050565b6000806001600084815260200190815260200160002060009054906101000a900473ffffffffffffffffffffffffffffffffffffffff169050600073ffffffffffffffffffffffffffffffffffffffff168173ffffffffffffffffffffffffffffffffffffffff161415610720576040517f08c379a000000000000000000000000000000000000000000000000000000000815260040161071790610fce565b60405180910390fd5b80915050919050565b60008073ffffffffffffffffffffffffffffffffffffffff168273ffffffffffffffffffffffffffffffffffffffff16141561079a576040517f08c379a000000000000000000000000000000000000000000000000000000000815260040161079190610fce565b60405180910390fd5b600260008373ffffffffffffffffffffffffffffffffffffffff1673ffffffffffffffffffffffffffffffffffffffff168152602001908152602001600020549050919050565b60006107ec82610ab6565b61082b576040517f08c379a00000000000000000000000000000000000000000000000000000000081526004016108229061100e565b60405180910390fd5b600061083683610677565b90508373ffffffffffffffffffffffffffffffffffffffff168173ffffffffffffffffffffffffffffffffffffffff161491505092915050565b600073ffffffffffffffffffffffffffffffffffffffff168273ffffffffffffffffffffffffffffffffffffffff1614156108e0576040517f08c379a00000000000000000000000000000000000000000000000000000000081526004016108d790610fee565b60405180910390fd5b8273ffffffffffffffffffffffffffffffffffffffff1661090082610677565b73ffffffffffffffffffffffffffffffffffffffff1614610956576040517f08c379a000000000000000000000000000000000000000000000000000000000815260040161094d9061102e565b60405180910390fd5b6001600260008573ffffffffffffffffffffffffffffffffffffffff1673ffffffffffffffffffffffffffffffffffffffff16815260200190815260200160002060008282546109a69190611170565b925050819055506001600260008473ffffffffffffffffffffffffffffffffffffffff1673ffffffffffffffffffffffffffffffffffffffff16815260200190815260200160002060008282546109fd919061111a565b92505081905550816001600083815260200190815260200160002060006101000a81548173ffffffffffffffffffffffffffffffffffffffff021916908373ffffffffffffffffffffffffffffffffffffffff160217905550808273ffffffffffffffffffffffffffffffffffffffff168473ffffffffffffffffffffffffffffffffffffffff167fddf252ad1be2c89b69c2b068fc378daa952ba7f163c4a11628f55a4df523b3ef60405160405180910390a4505050565b6000806001600084815260200190815260200160002060009054906101000a900473ffffffffffffffffffffffffffffffffffffffff169050600073ffffffffffffffffffffffffffffffffffffffff168173ffffffffffffffffffffffffffffffffffffffff161415915050919050565b600081359050610b3781611247565b92915050565b600081359050610b4c8161125e565b92915050565b600081359050610b6181611275565b92915050565b600060208284031215610b7957600080fd5b6000610b8784828501610b28565b91505092915050565b600080600060608486031215610ba557600080fd5b6000610bb386828701610b28565b9350506020610bc486828701610b28565b9250506040610bd586828701610b52565b9150509250925092565b60008060408385031215610bf257600080fd5b6000610c0085828601610b28565b9250506020610c1185828601610b52565b9150509250929050565b600060208284031215610c2d57600080fd5b6000610c3b84828501610b3d565b91505092915050565b600060208284031215610c5657600080fd5b6000610c6484828501610b52565b91505092915050565b610c76816111a4565b82525050565b610c85816111b6565b82525050565b6000610c98602283611109565b91507f6f776e657220717565727920666f72206e6f6e2d6578697374656e7420746f6b60008301527f656e0000000000000000000000000000000000000000000000000000000000006020830152604082019050919050565b6000610cfe602d83611109565b91507f4572726f723a20455243373231207472616e73666572696e6720746f2074686560008301527f207a65726f2061646472657373000000000000000000000000000000000000006020830152604082019050919050565b6000610d64601c83611109565b91507f4572726f723a20746f6b656e20646f6573206e6f7420657869737473000000006000830152602082019050919050565b6000610da4603883611109565b91507f4572726f723a20455243373231207472616e73666572696e6720746f6b656e2060008301527f746865206164647265737320646f6573206e6f74206f776e00000000000000006020830152604082019050919050565b6000610e0a602183611109565b91507f4572726f723a20617070726f76616c20746f2063757272656e74206f776e657260008301527f21000000000000000000000000000000000000000000000000000000000000006020830152604082019050919050565b6000610e70601e83611109565b91507f476c6f62616c20696e646578206973206f7574206f6620626f756e64732100006000830152602082019050919050565b6000610eb0603383611109565b91507f4572726f723a2063757272656e742063616c6c6572206973206e6f742074686560008301527f206f776e6572206f662074686520746f6b656e000000000000000000000000006020830152604082019050919050565b6000610f16601d83611109565b91507f4f776e657220696e646578206973206f7574206f6620626f756e6473210000006000830152602082019050919050565b6000610f56601983611109565b91507f4552433136353a20496e76616c696420696e74657266616365000000000000006000830152602082019050919050565b610f928161120e565b82525050565b6000602082019050610fad6000830184610c6d565b92915050565b6000602082019050610fc86000830184610c7c565b92915050565b60006020820190508181036000830152610fe781610c8b565b9050919050565b6000602082019050818103600083015261100781610cf1565b9050919050565b6000602082019050818103600083015261102781610d57565b9050919050565b6000602082019050818103600083015261104781610d97565b9050919050565b6000602082019050818103600083015261106781610dfd565b9050919050565b6000602082019050818103600083015261108781610e63565b9050919050565b600060208201905081810360008301526110a781610ea3565b9050919050565b600060208201905081810360008301526110c781610f09565b9050919050565b600060208201905081810360008301526110e781610f49565b9050919050565b60006020820190506111036000830184610f89565b92915050565b600082825260208201905092915050565b60006111258261120e565b91506111308361120e565b9250827fffffffffffffffffffffffffffffffffffffffffffffffffffffffffffffffff0382111561116557611164611218565b5b828201905092915050565b600061117b8261120e565b91506111868361120e565b92508282101561119957611198611218565b5b828203905092915050565b60006111af826111ee565b9050919050565b60008115159050919050565b60007fffffffff0000000000000000000000000000000000000000000000000000000082169050919050565b600073ffffffffffffffffffffffffffffffffffffffff82169050919050565b6000819050919050565b7f4e487b7100000000000000000000000000000000000000000000000000000000600052601160045260246000fd5b611250816111a4565b811461125b57600080fd5b50565b611267816111c2565b811461127257600080fd5b50565b61127e8161120e565b811461128957600080fd5b5056fea2646970667358221220c45b78622ad67eb9724ac533702b0f0dcba55b643361e1e8a3e211df0f88bc1064736f6c63430008000033",
  "immutableReferences": {},
  "source": "// SPDX-License-Identifier: MIT\r\npragma solidity ^0.8.0;\r\n\r\nimport \"./ERC721.sol\";\r\nimport \"./interfaces/IERC721Enumerable.sol\";\r\n\r\ncontract ERC721Enumerable is IERC721Enumerable, ERC721 {\r\n\r\n    uint256[] private _allTokens;\r\n\r\n    // mapping frok token id to position of in _allToken array\r\n    mapping(uint => uint) private _allTokenIndex;\r\n\r\n    // mapping of owner to list of all token ids\r\n    mapping(address => uint[]) private _ownedTokens;\r\n\r\n    // mapping of token id index of the owner tokens list\r\n    mapping(uint => uint) private _ownedTokenIndex; \r\n\r\n    constructor() {\r\n        _registerInterface(bytes4(keccak256('tokenSupply(bytes4)')^\r\n        keccak256('tokenByIndex(bytes4)')^\r\n        keccak256('tokenOfOwnerByIndex(bytes4)')));\r\n    }\r\n\r\n    /// @notice Count NFTs tracked by this contract\r\n    /// @return A count of valid NFTs tracked by this contract, where each one of\r\n    ///  them has an assigned and queryable owner not equal to the zero address\r\n    function totalSupply() public view override returns (uint256) {\r\n        return _allTokens.length;\r\n    }\r\n\r\n    /// Enumerate valid NFTs\r\n    ///  Throws if `_index` >= `totalSupply()`.\r\n    /// A counter less than `totalSupply()`\r\n    /// The token identifier for the `_index`th NFT,\r\n    ///  (sort order not specified)\r\n    function tokenByIndex(uint256 _index) public override view returns (uint256) {\r\n        require(_index < totalSupply(), \"Global index is out of bounds!\");\r\n        return _allTokens[_index];\r\n    }\r\n\r\n    /// Enumerate NFTs assigned to an owner\r\n    /// Throws if `_index` >= `balanceOf(_owner)` or if\r\n    /// `_owner` is the zero address, representing invalid NFTs.\r\n    /// An address where we are interested in NFTs owned by them\r\n    ///  A counter less than `balanceOf(_owner)`\r\n    /// The token identifier for the `_index`th NFT assigned to `_owner`,\r\n    ///   (sort order not specified)\r\n    function tokenOfOwnerByIndex(address _owner, uint256 _index) public override view returns (uint256) {\r\n        require(_index < balanceOf(_owner), \"Owner index is out of bounds!\");\r\n        return _ownedTokens[_owner][_index];\r\n    }\r\n\r\n    function _mint (address to, uint tokenId) internal override(ERC721) {\r\n        super._mint(to, tokenId);\r\n\r\n        _addTokensToTokenEnumeration(tokenId);\r\n        _addTokensToOwnerEnumeration(to, tokenId);\r\n    }\r\n\r\n    function _addTokensToTokenEnumeration (uint256 tokenId) private {\r\n        _allTokens.push(tokenId);\r\n        _allTokenIndex[tokenId] = _allTokens.length;\r\n    }\r\n\r\n    function _addTokensToOwnerEnumeration(address to, uint256 tokenId) private {\r\n        _ownedTokens[to].push(tokenId);\r\n        _ownedTokenIndex[tokenId] = _ownedTokens[to].length;\r\n    }\r\n\r\n}",
  "sourcePath": "C:\\Users\\Cypherspot\\Documents\\nft-marketplace-starter-kit\\src\\contracts\\ERC721Enumerable.sol",
  "compiler": {
    "name": "solc",
    "version": "0.8.0+commit.c7dfd78e.Emscripten.clang"
  },
  "schemaVersion": "3.4.5",
  "updatedAt": "2022-03-16T18:30:28.079Z",
  "devdoc": {
    "kind": "dev",
    "methods": {
      "balanceOf(address)": {
        "details": "NFTs assigned to the zero address are considered invalid, and this  function throws for queries about the zero address.",
        "params": {
          "_owner": "An address for whom to query the balance"
        },
        "returns": {
          "_0": "The number of NFTs owned by `_owner`, possibly zero"
        }
      },
      "ownerOf(uint256)": {
        "details": "NFTs assigned to zero address are considered invalid, and queries  about them do throw.",
        "params": {
          "_tokenId": "The identifier for an NFT"
        },
        "returns": {
          "_0": "The address of the owner of the NFT"
        }
      },
      "totalSupply()": {
        "returns": {
          "_0": "A count of valid NFTs tracked by this contract, where each one of  them has an assigned and queryable owner not equal to the zero address"
        }
      },
      "transferFrom(address,address,uint256)": {
        "details": "Throws unless `msg.sender` is the current owner, an authorized  operator, or the approved address for this NFT. Throws if `_from` is  not the current owner. Throws if `_to` is the zero address. Throws if  `_tokenId` is not a valid NFT.",
        "params": {
          "_from": "The current owner of the NFT",
          "_to": "The new owner",
          "_tokenId": "The NFT to transfer"
        }
      }
    },
    "version": 1
  },
  "userdoc": {
    "kind": "user",
    "methods": {
      "balanceOf(address)": {
        "notice": "Count all NFTs assigned to an owner"
      },
      "ownerOf(uint256)": {
        "notice": "Find the owner of an NFT"
      },
      "tokenByIndex(uint256)": {
        "notice": "Enumerate valid NFTs  Throws if `_index` >= `totalSupply()`. A counter less than `totalSupply()` The token identifier for the `_index`th NFT,  (sort order not specified)"
      },
      "tokenOfOwnerByIndex(address,uint256)": {
        "notice": "Enumerate NFTs assigned to an owner Throws if `_index` >= `balanceOf(_owner)` or if `_owner` is the zero address, representing invalid NFTs. An address where we are interested in NFTs owned by them  A counter less than `balanceOf(_owner)` The token identifier for the `_index`th NFT assigned to `_owner`,   (sort order not specified)"
      },
      "totalSupply()": {
        "notice": "Count NFTs tracked by this contract"
      },
      "transferFrom(address,address,uint256)": {
        "notice": "Transfer ownership of an NFT -- THE CALLER IS RESPONSIBLE  TO CONFIRM THAT `_to` IS CAPABLE OF RECEIVING NFTS OR ELSE  THEY MAY BE PERMANENTLY LOST"
      }
    },
    "version": 1
  }
}