{
  "contractName": "ERC721",
  "abi": [
    {
      "inputs": [],
      "stateMutability": "nonpayable",
      "type": "constructor"
    },
    {
      "anonymous": false,
      "inputs": [
        {
          "indexed": true,
          "internalType": "address",
          "name": "_owner",
          "type": "address"
        },
        {
          "indexed": true,
          "internalType": "address",
          "name": "_approved",
          "type": "address"
        },
        {
          "indexed": true,
          "internalType": "uint256",
          "name": "_tokenId",
          "type": "uint256"
        }
      ],
      "name": "Approval",
      "type": "event"
    },
    {
      "anonymous": false,
      "inputs": [
        {
          "indexed": true,
          "internalType": "address",
          "name": "_from",
          "type": "address"
        },
        {
          "indexed": true,
          "internalType": "address",
          "name": "_to",
          "type": "address"
        },
        {
          "indexed": true,
          "internalType": "uint256",
          "name": "_tokenId",
          "type": "uint256"
        }
      ],
      "name": "Transfer",
      "type": "event"
    },
    {
      "inputs": [
        {
          "internalType": "bytes4",
          "name": "interfaceId",
          "type": "bytes4"
        }
      ],
      "name": "_registerInterface",
      "outputs": [],
      "stateMutability": "nonpayable",
      "type": "function"
    },
    {
      "inputs": [
        {
          "internalType": "bytes4",
          "name": "interfaceId",
          "type": "bytes4"
        }
      ],
      "name": "supportsInterface",
      "outputs": [
        {
          "internalType": "bool",
          "name": "",
          "type": "bool"
        }
      ],
      "stateMutability": "view",
      "type": "function"
    },
    {
      "inputs": [
        {
          "internalType": "address",
          "name": "_owner",
          "type": "address"
        }
      ],
      "name": "balanceOf",
      "outputs": [
        {
          "internalType": "uint256",
          "name": "",
          "type": "uint256"
        }
      ],
      "stateMutability": "view",
      "type": "function"
    },
    {
      "inputs": [
        {
          "internalType": "uint256",
          "name": "_tokenId",
          "type": "uint256"
        }
      ],
      "name": "ownerOf",
      "outputs": [
        {
          "internalType": "address",
          "name": "",
          "type": "address"
        }
      ],
      "stateMutability": "view",
      "type": "function"
    },
    {
      "inputs": [
        {
          "internalType": "address",
          "name": "_from",
          "type": "address"
        },
        {
          "internalType": "address",
          "name": "_to",
          "type": "address"
        },
        {
          "internalType": "uint256",
          "name": "_tokenId",
          "type": "uint256"
        }
      ],
      "name": "transferFrom",
      "outputs": [],
      "stateMutability": "nonpayable",
      "type": "function"
    },
    {
      "inputs": [
        {
          "internalType": "address",
          "name": "_to",
          "type": "address"
        },
        {
          "internalType": "uint256",
          "name": "_tokenId",
          "type": "uint256"
        }
      ],
      "name": "approve",
      "outputs": [],
      "stateMutability": "nonpayable",
      "type": "function"
    }
  ],
  "bytecode": "0x608060405234801561001057600080fd5b506100407f01ffc9a7a5cef8baa21ed3c5c0d7e23accb804b619e9333b597f47a0d84076e26100b860201b60201c565b6100b37f22c82707ba960a14c7592ffb6b8cfaa073fed0048a84cc7fa41f6b5bd8e7f2e47f3a6eb71757dfc6e784c1459d26270140c2c147d95ca985c80026fc5301c3eca17f8a7e378434598edc36d108689a030cbc9d7d465de4f74c71bae1028eed6a881b18186100b860201b60201c565b6101fe565b63ffffffff60e01b817bffffffffffffffffffffffffffffffffffffffffffffffffffffffff19161415610121576040517f08c379a0000000000000000000000000000000000000000000000000000000008152600401610118906101cd565b60405180910390fd5b6001600080837bffffffffffffffffffffffffffffffffffffffffffffffffffffffff19167bffffffffffffffffffffffffffffffffffffffffffffffffffffffff1916815260200190815260200160002060006101000a81548160ff02191690831515021790555050565b600061019a6019836101ed565b91507f4552433136353a20496e76616c696420696e74657266616365000000000000006000830152602082019050919050565b600060208201905081810360008301526101e68161018d565b9050919050565b600082825260208201905092915050565b6110c98061020d6000396000f3fe608060405234801561001057600080fd5b50600436106100625760003560e01c806301ffc9a714610067578063068417d914610097578063095ea7b3146100b357806323b872dd146100cf5780636352211e146100eb57806370a082311461011b575b600080fd5b610081600480360381019061007c9190610a82565b61014b565b60405161008e9190610dda565b60405180910390f35b6100b160048036038101906100ac9190610a82565b6101b2565b005b6100cd60048036038101906100c89190610a46565b610287565b005b6100e960048036038101906100e491906109f7565b61042b565b005b61010560048036038101906101009190610aab565b61044e565b6040516101129190610dbf565b60405180910390f35b610135600480360381019061013091906109ce565b610500565b6040516101429190610ef5565b60405180910390f35b6000806000837bffffffffffffffffffffffffffffffffffffffffffffffffffffffff19167bffffffffffffffffffffffffffffffffffffffffffffffffffffffff1916815260200190815260200160002060009054906101000a900460ff169050919050565b63ffffffff60e01b817bffffffffffffffffffffffffffffffffffffffffffffffffffffffff1916141561021b576040517f08c379a000000000000000000000000000000000000000000000000000000000815260040161021290610ed5565b60405180910390fd5b6001600080837bffffffffffffffffffffffffffffffffffffffffffffffffffffffff19167bffffffffffffffffffffffffffffffffffffffffffffffffffffffff1916815260200190815260200160002060006101000a81548160ff02191690831515021790555050565b60006102928261044e565b90508073ffffffffffffffffffffffffffffffffffffffff168373ffffffffffffffffffffffffffffffffffffffff161415610303576040517f08c379a00000000000000000000000000000000000000000000000000000000081526004016102fa90610e75565b60405180910390fd5b61030c8261044e565b73ffffffffffffffffffffffffffffffffffffffff163373ffffffffffffffffffffffffffffffffffffffff1614610379576040517f08c379a000000000000000000000000000000000000000000000000000000000815260040161037090610eb5565b60405180910390fd5b826003600084815260200190815260200160002060006101000a81548173ffffffffffffffffffffffffffffffffffffffff021916908373ffffffffffffffffffffffffffffffffffffffff160217905550818373ffffffffffffffffffffffffffffffffffffffff168273ffffffffffffffffffffffffffffffffffffffff167f8c5be1e5ebec7d5bd14f71427d1e84f3dd0314c0f7b2291e5b200ac8c7c3b92560405160405180910390a4505050565b61043533826105bf565b61043e57600080fd5b61044983838361064e565b505050565b6000806001600084815260200190815260200160002060009054906101000a900473ffffffffffffffffffffffffffffffffffffffff169050600073ffffffffffffffffffffffffffffffffffffffff168173ffffffffffffffffffffffffffffffffffffffff1614156104f7576040517f08c379a00000000000000000000000000000000000000000000000000000000081526004016104ee90610df5565b60405180910390fd5b80915050919050565b60008073ffffffffffffffffffffffffffffffffffffffff168273ffffffffffffffffffffffffffffffffffffffff161415610571576040517f08c379a000000000000000000000000000000000000000000000000000000000815260040161056890610df5565b60405180910390fd5b6105b8600260008473ffffffffffffffffffffffffffffffffffffffff1673ffffffffffffffffffffffffffffffffffffffff168152602001908152602001600020610874565b9050919050565b60006105ca82610882565b610609576040517f08c379a000000000000000000000000000000000000000000000000000000000815260040161060090610e35565b60405180910390fd5b60006106148361044e565b90508373ffffffffffffffffffffffffffffffffffffffff168173ffffffffffffffffffffffffffffffffffffffff161491505092915050565b600073ffffffffffffffffffffffffffffffffffffffff168273ffffffffffffffffffffffffffffffffffffffff1614156106be576040517f08c379a00000000000000000000000000000000000000000000000000000000081526004016106b590610e15565b60405180910390fd5b8273ffffffffffffffffffffffffffffffffffffffff166106de8261044e565b73ffffffffffffffffffffffffffffffffffffffff1614610734576040517f08c379a000000000000000000000000000000000000000000000000000000000815260040161072b90610e55565b60405180910390fd5b61077b600260008573ffffffffffffffffffffffffffffffffffffffff1673ffffffffffffffffffffffffffffffffffffffff1681526020019081526020016000206108f4565b6107c2600260008473ffffffffffffffffffffffffffffffffffffffff1673ffffffffffffffffffffffffffffffffffffffff168152602001908152602001600020610917565b816001600083815260200190815260200160002060006101000a81548173ffffffffffffffffffffffffffffffffffffffff021916908373ffffffffffffffffffffffffffffffffffffffff160217905550808273ffffffffffffffffffffffffffffffffffffffff168473ffffffffffffffffffffffffffffffffffffffff167fddf252ad1be2c89b69c2b068fc378daa952ba7f163c4a11628f55a4df523b3ef60405160405180910390a4505050565b600081600001549050919050565b6000806001600084815260200190815260200160002060009054906101000a900473ffffffffffffffffffffffffffffffffffffffff169050600073ffffffffffffffffffffffffffffffffffffffff168173ffffffffffffffffffffffffffffffffffffffff161415915050919050565b61090c6001826000015461093690919063ffffffff16565b816000018190555050565b600181600001600082825461092c9190610f21565b9250508190555050565b60008183101561097b576040517f08c379a000000000000000000000000000000000000000000000000000000000815260040161097290610e95565b60405180910390fd5b81836109879190610f77565b905092915050565b60008135905061099e8161104e565b92915050565b6000813590506109b381611065565b92915050565b6000813590506109c88161107c565b92915050565b6000602082840312156109e057600080fd5b60006109ee8482850161098f565b91505092915050565b600080600060608486031215610a0c57600080fd5b6000610a1a8682870161098f565b9350506020610a2b8682870161098f565b9250506040610a3c868287016109b9565b9150509250925092565b60008060408385031215610a5957600080fd5b6000610a678582860161098f565b9250506020610a78858286016109b9565b9150509250929050565b600060208284031215610a9457600080fd5b6000610aa2848285016109a4565b91505092915050565b600060208284031215610abd57600080fd5b6000610acb848285016109b9565b91505092915050565b610add81610fab565b82525050565b610aec81610fbd565b82525050565b6000610aff602283610f10565b91507f6f776e657220717565727920666f72206e6f6e2d6578697374656e7420746f6b60008301527f656e0000000000000000000000000000000000000000000000000000000000006020830152604082019050919050565b6000610b65602d83610f10565b91507f4572726f723a20455243373231207472616e73666572696e6720746f2074686560008301527f207a65726f2061646472657373000000000000000000000000000000000000006020830152604082019050919050565b6000610bcb601c83610f10565b91507f4572726f723a20746f6b656e20646f6573206e6f7420657869737473000000006000830152602082019050919050565b6000610c0b603883610f10565b91507f4572726f723a20455243373231207472616e73666572696e6720746f6b656e2060008301527f746865206164647265737320646f6573206e6f74206f776e00000000000000006020830152604082019050919050565b6000610c71602183610f10565b91507f4572726f723a20617070726f76616c20746f2063757272656e74206f776e657260008301527f21000000000000000000000000000000000000000000000000000000000000006020830152604082019050919050565b6000610cd7601e83610f10565b91507f536166654d6174683a205375627472616374696f6e206f766572666c6f7700006000830152602082019050919050565b6000610d17603383610f10565b91507f4572726f723a2063757272656e742063616c6c6572206973206e6f742074686560008301527f206f776e6572206f662074686520746f6b656e000000000000000000000000006020830152604082019050919050565b6000610d7d601983610f10565b91507f4552433136353a20496e76616c696420696e74657266616365000000000000006000830152602082019050919050565b610db981611015565b82525050565b6000602082019050610dd46000830184610ad4565b92915050565b6000602082019050610def6000830184610ae3565b92915050565b60006020820190508181036000830152610e0e81610af2565b9050919050565b60006020820190508181036000830152610e2e81610b58565b9050919050565b60006020820190508181036000830152610e4e81610bbe565b9050919050565b60006020820190508181036000830152610e6e81610bfe565b9050919050565b60006020820190508181036000830152610e8e81610c64565b9050919050565b60006020820190508181036000830152610eae81610cca565b9050919050565b60006020820190508181036000830152610ece81610d0a565b9050919050565b60006020820190508181036000830152610eee81610d70565b9050919050565b6000602082019050610f0a6000830184610db0565b92915050565b600082825260208201905092915050565b6000610f2c82611015565b9150610f3783611015565b9250827fffffffffffffffffffffffffffffffffffffffffffffffffffffffffffffffff03821115610f6c57610f6b61101f565b5b828201905092915050565b6000610f8282611015565b9150610f8d83611015565b925082821015610fa057610f9f61101f565b5b828203905092915050565b6000610fb682610ff5565b9050919050565b60008115159050919050565b60007fffffffff0000000000000000000000000000000000000000000000000000000082169050919050565b600073ffffffffffffffffffffffffffffffffffffffff82169050919050565b6000819050919050565b7f4e487b7100000000000000000000000000000000000000000000000000000000600052601160045260246000fd5b61105781610fab565b811461106257600080fd5b50565b61106e81610fc9565b811461107957600080fd5b50565b61108581611015565b811461109057600080fd5b5056fea2646970667358221220a2a01a72b438e965d4698675c90697f105c0037d74cef712ffcd4adad0111f5564736f6c63430008000033",
  "immutableReferences": {},
  "source": "// SPDX-License-Identifier: MIT\r\npragma solidity ^0.8.0;\r\n\r\nimport \"./ERC165.sol\";\r\nimport \"./interfaces/IERC721.sol\";\r\nimport \"./libraries/Counters.sol\";\r\n\r\ncontract ERC721 is ERC165, IERC721 {\r\n    using SafeMath for uint256;\r\n    using Counters for Counters.Counter;\r\n\r\n    /*\r\n        BUILDING OUT THE MINTING FUNCTION\r\n        a. nft to point to an address\r\n        b. keep track of the token ids\r\n        c. keep track of token owner address to token ids\r\n        d. keep track of how many tokens an owner address has\r\n        e. an event that emits a transfer log - contract address,\r\n        where it is been minted to , id  \r\n    */\r\n\r\n\r\n    mapping(uint => address) private _tokenOwner;\r\n    mapping(address => Counters.Counter) private _OwnedTokensCount;\r\n\r\n    //mapping from token id to approved addresses\r\n    mapping(uint256 => address) private _tokenApprovals;\r\n\r\n    constructor() {\r\n        _registerInterface(bytes4(keccak256('balanceOf(bytes4)')^\r\n        keccak256('ownerOf(bytes4)')^\r\n        keccak256('transferFrom(bytes4)')));\r\n    }\r\n\r\n\r\n    /// @notice Count all NFTs assigned to an owner\r\n    /// @dev NFTs assigned to the zero address are considered invalid, and this\r\n    ///  function throws for queries about the zero address.\r\n    /// @param _owner An address for whom to query the balance\r\n    /// @return The number of NFTs owned by `_owner`, possibly zero\r\n    function balanceOf(address _owner) public view override returns (uint256) {\r\n        require(_owner != address(0), \"owner query for non-existent token\");\r\n        return _OwnedTokensCount[_owner].current();\r\n    }\r\n\r\n    /// @notice Find the owner of an NFT\r\n    /// @dev NFTs assigned to zero address are considered invalid, and queries\r\n    ///  about them do throw.\r\n    /// @param _tokenId The identifier for an NFT\r\n    /// @return The address of the owner of the NFT\r\n    function ownerOf(uint256 _tokenId) public view override returns (address) {\r\n        address owner = _tokenOwner[_tokenId];\r\n        require(owner != address(0), \"owner query for non-existent token\");\r\n        return owner;\r\n    }\r\n\r\n    function _exists(uint tokenId) internal view returns(bool) {\r\n        // checks if owner in _tokenOwner\r\n        address owner = _tokenOwner[tokenId];\r\n        // checks the truth value of the owner\r\n        return owner != address(0);\r\n    }\r\n\r\n    function _mint (address to, uint tokenId) internal virtual {\r\n        // require that the address is not zero\r\n        require(to != address(0), \"ERC721: minting to the zero address\");\r\n        // require that the token does not already exists\r\n        require(!_exists(tokenId), \"ERC721: token already minted\");\r\n        // adding a new address for token id for minting\r\n        _tokenOwner[tokenId] = to;\r\n        // keeping track of the amount of token minted by an address\r\n        _OwnedTokensCount[to].increment();\r\n\r\n        emit Transfer(address(0), to, tokenId);\r\n    }\r\n\r\n    /// @notice Transfer ownership of an NFT -- THE CALLER IS RESPONSIBLE\r\n    ///  TO CONFIRM THAT `_to` IS CAPABLE OF RECEIVING NFTS OR ELSE\r\n    ///  THEY MAY BE PERMANENTLY LOST\r\n    /// @dev Throws unless `msg.sender` is the current owner, an authorized\r\n    ///  operator, or the approved address for this NFT. Throws if `_from` is\r\n    ///  not the current owner. Throws if `_to` is the zero address. Throws if\r\n    ///  `_tokenId` is not a valid NFT.\r\n    /// @param _from The current owner of the NFT\r\n    /// @param _to The new owner\r\n    /// @param _tokenId The NFT to transfer\r\n    function _transferFrom(address _from, address _to, uint256 _tokenId) internal {\r\n        require(_to != address(0), \"Error: ERC721 transfering to the zero address\");\r\n        require(ownerOf(_tokenId) == _from, \"Error: ERC721 transfering token the address does not own\");\r\n        _OwnedTokensCount[_from].decrement();\r\n        _OwnedTokensCount[_to].increment();\r\n        _tokenOwner[_tokenId] = _to;\r\n        emit Transfer(_from, _to, _tokenId);\r\n    }\r\n\r\n    function transferFrom(address _from, address _to, uint256 _tokenId) public override {\r\n        require(isApprovedOrOwner(msg.sender, _tokenId));\r\n        _transferFrom(_from, _to, _tokenId);\r\n    }\r\n\r\n    function approve(address _to, uint256 _tokenId) public {\r\n        address owner = ownerOf(_tokenId);\r\n        require(_to != owner, \"Error: approval to current owner!\");\r\n        require(msg.sender == ownerOf(_tokenId), \"Error: current caller is not the owner of the token\");\r\n        _tokenApprovals[_tokenId] = _to;\r\n\r\n        emit Approval(owner, _to, _tokenId);\r\n    }\r\n\r\n    function isApprovedOrOwner(address spender, uint256 tokenId) internal view returns(bool) {\r\n        require(_exists(tokenId), \"Error: token does not exists\");\r\n        address owner = ownerOf(tokenId);\r\n        return ( owner == spender );\r\n    }\r\n    \r\n}",
  "sourcePath": "C:\\Users\\Cypherspot\\Documents\\nft-marketplace-starter-kit\\src\\contracts\\ERC721.sol",
  "compiler": {
    "name": "solc",
    "version": "0.8.0+commit.c7dfd78e.Emscripten.clang"
  },
  "schemaVersion": "3.4.5",
  "updatedAt": "2022-03-16T20:37:32.255Z",
  "devdoc": {
    "kind": "dev",
    "methods": {
      "balanceOf(address)": {
        "details": "NFTs assigned to the zero address are considered invalid, and this  function throws for queries about the zero address.",
        "params": {
          "_owner": "An address for whom to query the balance"
        },
        "returns": {
          "_0": "The number of NFTs owned by `_owner`, possibly zero"
        }
      },
      "ownerOf(uint256)": {
        "details": "NFTs assigned to zero address are considered invalid, and queries  about them do throw.",
        "params": {
          "_tokenId": "The identifier for an NFT"
        },
        "returns": {
          "_0": "The address of the owner of the NFT"
        }
      },
      "transferFrom(address,address,uint256)": {
        "details": "Throws unless `msg.sender` is the current owner, an authorized  operator, or the approved address for this NFT. Throws if `_from` is  not the current owner. Throws if `_to` is the zero address. Throws if  `_tokenId` is not a valid NFT.",
        "params": {
          "_from": "The current owner of the NFT",
          "_to": "The new owner",
          "_tokenId": "The NFT to transfer"
        }
      }
    },
    "version": 1
  },
  "userdoc": {
    "kind": "user",
    "methods": {
      "balanceOf(address)": {
        "notice": "Count all NFTs assigned to an owner"
      },
      "ownerOf(uint256)": {
        "notice": "Find the owner of an NFT"
      },
      "transferFrom(address,address,uint256)": {
        "notice": "Transfer ownership of an NFT -- THE CALLER IS RESPONSIBLE  TO CONFIRM THAT `_to` IS CAPABLE OF RECEIVING NFTS OR ELSE  THEY MAY BE PERMANENTLY LOST"
      }
    },
    "version": 1
  }
}