{
  "contractName": "KryptoBird",
  "abi": [
    {
      "inputs": [],
      "stateMutability": "nonpayable",
      "type": "constructor"
    },
    {
      "anonymous": false,
      "inputs": [
        {
          "indexed": true,
          "internalType": "address",
          "name": "_owner",
          "type": "address"
        },
        {
          "indexed": true,
          "internalType": "address",
          "name": "_approved",
          "type": "address"
        },
        {
          "indexed": true,
          "internalType": "uint256",
          "name": "_tokenId",
          "type": "uint256"
        }
      ],
      "name": "Approval",
      "type": "event"
    },
    {
      "anonymous": false,
      "inputs": [
        {
          "indexed": true,
          "internalType": "address",
          "name": "_from",
          "type": "address"
        },
        {
          "indexed": true,
          "internalType": "address",
          "name": "_to",
          "type": "address"
        },
        {
          "indexed": true,
          "internalType": "uint256",
          "name": "_tokenId",
          "type": "uint256"
        }
      ],
      "name": "Transfer",
      "type": "event"
    },
    {
      "inputs": [
        {
          "internalType": "bytes4",
          "name": "interfaceId",
          "type": "bytes4"
        }
      ],
      "name": "_registerInterface",
      "outputs": [],
      "stateMutability": "nonpayable",
      "type": "function"
    },
    {
      "inputs": [
        {
          "internalType": "address",
          "name": "_to",
          "type": "address"
        },
        {
          "internalType": "uint256",
          "name": "_tokenId",
          "type": "uint256"
        }
      ],
      "name": "approve",
      "outputs": [],
      "stateMutability": "nonpayable",
      "type": "function"
    },
    {
      "inputs": [
        {
          "internalType": "address",
          "name": "_owner",
          "type": "address"
        }
      ],
      "name": "balanceOf",
      "outputs": [
        {
          "internalType": "uint256",
          "name": "",
          "type": "uint256"
        }
      ],
      "stateMutability": "view",
      "type": "function",
      "constant": true
    },
    {
      "inputs": [
        {
          "internalType": "uint256",
          "name": "",
          "type": "uint256"
        }
      ],
      "name": "kryptobirdz",
      "outputs": [
        {
          "internalType": "string",
          "name": "",
          "type": "string"
        }
      ],
      "stateMutability": "view",
      "type": "function",
      "constant": true
    },
    {
      "inputs": [],
      "name": "name",
      "outputs": [
        {
          "internalType": "string",
          "name": "",
          "type": "string"
        }
      ],
      "stateMutability": "view",
      "type": "function",
      "constant": true
    },
    {
      "inputs": [
        {
          "internalType": "uint256",
          "name": "_tokenId",
          "type": "uint256"
        }
      ],
      "name": "ownerOf",
      "outputs": [
        {
          "internalType": "address",
          "name": "",
          "type": "address"
        }
      ],
      "stateMutability": "view",
      "type": "function",
      "constant": true
    },
    {
      "inputs": [
        {
          "internalType": "bytes4",
          "name": "interfaceId",
          "type": "bytes4"
        }
      ],
      "name": "supportsInterface",
      "outputs": [
        {
          "internalType": "bool",
          "name": "",
          "type": "bool"
        }
      ],
      "stateMutability": "view",
      "type": "function",
      "constant": true
    },
    {
      "inputs": [],
      "name": "symbol",
      "outputs": [
        {
          "internalType": "string",
          "name": "",
          "type": "string"
        }
      ],
      "stateMutability": "view",
      "type": "function",
      "constant": true
    },
    {
      "inputs": [
        {
          "internalType": "uint256",
          "name": "_index",
          "type": "uint256"
        }
      ],
      "name": "tokenByIndex",
      "outputs": [
        {
          "internalType": "uint256",
          "name": "",
          "type": "uint256"
        }
      ],
      "stateMutability": "view",
      "type": "function",
      "constant": true
    },
    {
      "inputs": [
        {
          "internalType": "address",
          "name": "_owner",
          "type": "address"
        },
        {
          "internalType": "uint256",
          "name": "_index",
          "type": "uint256"
        }
      ],
      "name": "tokenOfOwnerByIndex",
      "outputs": [
        {
          "internalType": "uint256",
          "name": "",
          "type": "uint256"
        }
      ],
      "stateMutability": "view",
      "type": "function",
      "constant": true
    },
    {
      "inputs": [],
      "name": "totalSupply",
      "outputs": [
        {
          "internalType": "uint256",
          "name": "",
          "type": "uint256"
        }
      ],
      "stateMutability": "view",
      "type": "function",
      "constant": true
    },
    {
      "inputs": [
        {
          "internalType": "address",
          "name": "_from",
          "type": "address"
        },
        {
          "internalType": "address",
          "name": "_to",
          "type": "address"
        },
        {
          "internalType": "uint256",
          "name": "_tokenId",
          "type": "uint256"
        }
      ],
      "name": "transferFrom",
      "outputs": [],
      "stateMutability": "nonpayable",
      "type": "function"
    },
    {
      "inputs": [
        {
          "internalType": "string",
          "name": "_kryptobird",
          "type": "string"
        }
      ],
      "name": "mint",
      "outputs": [],
      "stateMutability": "nonpayable",
      "type": "function"
    }
  ],
  "bytecode": "0x60806040523480156200001157600080fd5b506040518060400160405280600a81526020017f4b727970746f42697264000000000000000000000000000000000000000000008152506040518060400160405280600681526020017f4b424952445a00000000000000000000000000000000000000000000000000008152508181620000b17f01ffc9a7a5cef8baa21ed3c5c0d7e23accb804b619e9333b597f47a0d84076e26200022a60201b60201c565b620001047f13b182f4c0e5b2efbac0efe6cf6d756c8b89f4b79c5707a043ed9ea740574ee97f7feaf19471f34a12a7eaf32d5f3090aa2260ea8624dc8a138e74e0bf0f623076186200022a60201b60201c565b81600190805190602001906200011c92919062000302565b5080600290805190602001906200013592919062000302565b505050620001ad7f22c82707ba960a14c7592ffb6b8cfaa073fed0048a84cc7fa41f6b5bd8e7f2e47f3a6eb71757dfc6e784c1459d26270140c2c147d95ca985c80026fc5301c3eca17f8a7e378434598edc36d108689a030cbc9d7d465de4f74c71bae1028eed6a881b18186200022a60201b60201c565b620002227f8230223f691b981717299fae9549350a0d894555723531f02108b1f522c1a7977f6da5e1284143cdd2d15038a59bde3be031250f00291d64494c12d967b3a4e0c37f22277f783092ff65775792475f25e3062cade605454ad8c3d14eb84bce9b927418186200022a60201b60201c565b50506200048c565b63ffffffff60e01b817bffffffffffffffffffffffffffffffffffffffffffffffffffffffff1916141562000296576040517f08c379a00000000000000000000000000000000000000000000000000000000081526004016200028d90620003f4565b60405180910390fd5b6001600080837bffffffffffffffffffffffffffffffffffffffffffffffffffffffff19167bffffffffffffffffffffffffffffffffffffffffffffffffffffffff1916815260200190815260200160002060006101000a81548160ff02191690831515021790555050565b828054620003109062000427565b90600052602060002090601f01602090048101928262000334576000855562000380565b82601f106200034f57805160ff191683800117855562000380565b8280016001018555821562000380579182015b828111156200037f57825182559160200191906001019062000362565b5b5090506200038f919062000393565b5090565b5b80821115620003ae57600081600090555060010162000394565b5090565b6000620003c160198362000416565b91507f4552433136353a20496e76616c696420696e74657266616365000000000000006000830152602082019050919050565b600060208201905081810360008301526200040f81620003b2565b9050919050565b600082825260208201905092915050565b600060028204905060018216806200044057607f821691505b602082108114156200045757620004566200045d565b5b50919050565b7f4e487b7100000000000000000000000000000000000000000000000000000000600052602260045260246000fd5b611eb8806200049c6000396000f3fe608060405234801561001057600080fd5b50600436106100cf5760003560e01c80632f745c591161008c5780636352211e116100665780636352211e1461022457806370a082311461025457806395d89b4114610284578063d85d3d27146102a2576100cf565b80632f745c591461019457806336a129a3146101c45780634f6ccce7146101f4576100cf565b806301ffc9a7146100d4578063068417d91461010457806306fdde0314610120578063095ea7b31461013e57806318160ddd1461015a57806323b872dd14610178575b600080fd5b6100ee60048036038101906100e9919061142d565b6102be565b6040516100fb91906119ad565b60405180910390f35b61011e6004803603810190610119919061142d565b610325565b005b6101286103fa565b60405161013591906119c8565b60405180910390f35b610158600480360381019061015391906113f1565b61048c565b005b610162610630565b60405161016f9190611b8a565b60405180910390f35b610192600480360381019061018d91906113a2565b61063d565b005b6101ae60048036038101906101a991906113f1565b610660565b6040516101bb9190611b8a565b60405180910390f35b6101de60048036038101906101d99190611497565b610736565b6040516101eb91906119c8565b60405180910390f35b61020e60048036038101906102099190611497565b6107e2565b60405161021b9190611b8a565b60405180910390f35b61023e60048036038101906102399190611497565b610879565b60405161024b9190611992565b60405180910390f35b61026e60048036038101906102699190611379565b61092b565b60405161027b9190611b8a565b60405180910390f35b61028c6109ea565b60405161029991906119c8565b60405180910390f35b6102bc60048036038101906102b79190611456565b610a7c565b005b6000806000837bffffffffffffffffffffffffffffffffffffffffffffffffffffffff19167bffffffffffffffffffffffffffffffffffffffffffffffffffffffff1916815260200190815260200160002060009054906101000a900460ff169050919050565b63ffffffff60e01b817bffffffffffffffffffffffffffffffffffffffffffffffffffffffff1916141561038e576040517f08c379a000000000000000000000000000000000000000000000000000000000815260040161038590611b4a565b60405180910390fd5b6001600080837bffffffffffffffffffffffffffffffffffffffffffffffffffffffff19167bffffffffffffffffffffffffffffffffffffffffffffffffffffffff1916815260200190815260200160002060006101000a81548160ff02191690831515021790555050565b60606001805461040990611d6d565b80601f016020809104026020016040519081016040528092919081815260200182805461043590611d6d565b80156104825780601f1061045757610100808354040283529160200191610482565b820191906000526020600020905b81548152906001019060200180831161046557829003601f168201915b5050505050905090565b600061049782610879565b90508073ffffffffffffffffffffffffffffffffffffffff168373ffffffffffffffffffffffffffffffffffffffff161415610508576040517f08c379a00000000000000000000000000000000000000000000000000000000081526004016104ff90611aaa565b60405180910390fd5b61051182610879565b73ffffffffffffffffffffffffffffffffffffffff163373ffffffffffffffffffffffffffffffffffffffff161461057e576040517f08c379a000000000000000000000000000000000000000000000000000000000815260040161057590611b0a565b60405180910390fd5b826005600084815260200190815260200160002060006101000a81548173ffffffffffffffffffffffffffffffffffffffff021916908373ffffffffffffffffffffffffffffffffffffffff160217905550818373ffffffffffffffffffffffffffffffffffffffff168273ffffffffffffffffffffffffffffffffffffffff167f8c5be1e5ebec7d5bd14f71427d1e84f3dd0314c0f7b2291e5b200ac8c7c3b92560405160405180910390a4505050565b6000600680549050905090565b6106473382610b7f565b61065057600080fd5b61065b838383610c0e565b505050565b600061066b8361092b565b82106106ac576040517f08c379a00000000000000000000000000000000000000000000000000000000081526004016106a390611b2a565b60405180910390fd5b600860008473ffffffffffffffffffffffffffffffffffffffff1673ffffffffffffffffffffffffffffffffffffffff1681526020019081526020016000208281548110610723577f4e487b7100000000000000000000000000000000000000000000000000000000600052603260045260246000fd5b9060005260206000200154905092915050565b600a818154811061074657600080fd5b90600052602060002001600091509050805461076190611d6d565b80601f016020809104026020016040519081016040528092919081815260200182805461078d90611d6d565b80156107da5780601f106107af576101008083540402835291602001916107da565b820191906000526020600020905b8154815290600101906020018083116107bd57829003601f168201915b505050505081565b60006107ec610630565b821061082d576040517f08c379a000000000000000000000000000000000000000000000000000000000815260040161082490611aea565b60405180910390fd5b60068281548110610867577f4e487b7100000000000000000000000000000000000000000000000000000000600052603260045260246000fd5b90600052602060002001549050919050565b6000806003600084815260200190815260200160002060009054906101000a900473ffffffffffffffffffffffffffffffffffffffff169050600073ffffffffffffffffffffffffffffffffffffffff168173ffffffffffffffffffffffffffffffffffffffff161415610922576040517f08c379a0000000000000000000000000000000000000000000000000000000008152600401610919906119ea565b60405180910390fd5b80915050919050565b60008073ffffffffffffffffffffffffffffffffffffffff168273ffffffffffffffffffffffffffffffffffffffff16141561099c576040517f08c379a0000000000000000000000000000000000000000000000000000000008152600401610993906119ea565b60405180910390fd5b6109e3600460008473ffffffffffffffffffffffffffffffffffffffff1673ffffffffffffffffffffffffffffffffffffffff168152602001908152602001600020610e34565b9050919050565b6060600280546109f990611d6d565b80601f0160208091040260200160405190810160405280929190818152602001828054610a2590611d6d565b8015610a725780601f10610a4757610100808354040283529160200191610a72565b820191906000526020600020905b815481529060010190602001808311610a5557829003601f168201915b5050505050905090565b600b81604051610a8c919061197b565b908152602001604051809103902060009054906101000a900460ff1615610ae8576040517f08c379a0000000000000000000000000000000000000000000000000000000008152600401610adf90611a2a565b60405180910390fd5b600a81908060018154018082558091505060019003906000526020600020016000909190919091509080519060200190610b2392919061122f565b5060006001600a80549050610b389190611c83565b9050610b443382610e42565b6001600b83604051610b56919061197b565b908152602001604051809103902060006101000a81548160ff0219169083151502179055505050565b6000610b8a82610e63565b610bc9576040517f08c379a0000000000000000000000000000000000000000000000000000000008152600401610bc090611a6a565b60405180910390fd5b6000610bd483610879565b90508373ffffffffffffffffffffffffffffffffffffffff168173ffffffffffffffffffffffffffffffffffffffff161491505092915050565b600073ffffffffffffffffffffffffffffffffffffffff168273ffffffffffffffffffffffffffffffffffffffff161415610c7e576040517f08c379a0000000000000000000000000000000000000000000000000000000008152600401610c7590611a4a565b60405180910390fd5b8273ffffffffffffffffffffffffffffffffffffffff16610c9e82610879565b73ffffffffffffffffffffffffffffffffffffffff1614610cf4576040517f08c379a0000000000000000000000000000000000000000000000000000000008152600401610ceb90611a8a565b60405180910390fd5b610d3b600460008573ffffffffffffffffffffffffffffffffffffffff1673ffffffffffffffffffffffffffffffffffffffff168152602001908152602001600020610ed5565b610d82600460008473ffffffffffffffffffffffffffffffffffffffff1673ffffffffffffffffffffffffffffffffffffffff168152602001908152602001600020610ef8565b816003600083815260200190815260200160002060006101000a81548173ffffffffffffffffffffffffffffffffffffffff021916908373ffffffffffffffffffffffffffffffffffffffff160217905550808273ffffffffffffffffffffffffffffffffffffffff168473ffffffffffffffffffffffffffffffffffffffff167fddf252ad1be2c89b69c2b068fc378daa952ba7f163c4a11628f55a4df523b3ef60405160405180910390a4505050565b600081600001549050919050565b610e4c8282610f17565b610e55816110c9565b610e5f8282611112565b5050565b6000806003600084815260200190815260200160002060009054906101000a900473ffffffffffffffffffffffffffffffffffffffff169050600073ffffffffffffffffffffffffffffffffffffffff168173ffffffffffffffffffffffffffffffffffffffff161415915050919050565b610eed600182600001546111d690919063ffffffff16565b816000018190555050565b6001816000016000828254610f0d9190611c2d565b9250508190555050565b600073ffffffffffffffffffffffffffffffffffffffff168273ffffffffffffffffffffffffffffffffffffffff161415610f87576040517f08c379a0000000000000000000000000000000000000000000000000000000008152600401610f7e90611b6a565b60405180910390fd5b610f9081610e63565b15610fd0576040517f08c379a0000000000000000000000000000000000000000000000000000000008152600401610fc790611a0a565b60405180910390fd5b816003600083815260200190815260200160002060006101000a81548173ffffffffffffffffffffffffffffffffffffffff021916908373ffffffffffffffffffffffffffffffffffffffff160217905550611069600460008473ffffffffffffffffffffffffffffffffffffffff1673ffffffffffffffffffffffffffffffffffffffff168152602001908152602001600020610ef8565b808273ffffffffffffffffffffffffffffffffffffffff16600073ffffffffffffffffffffffffffffffffffffffff167fddf252ad1be2c89b69c2b068fc378daa952ba7f163c4a11628f55a4df523b3ef60405160405180910390a45050565b6006819080600181540180825580915050600190039060005260206000200160009091909190915055600680549050600760008381526020019081526020016000208190555050565b600860008373ffffffffffffffffffffffffffffffffffffffff1673ffffffffffffffffffffffffffffffffffffffff168152602001908152602001600020819080600181540180825580915050600190039060005260206000200160009091909190915055600860008373ffffffffffffffffffffffffffffffffffffffff1673ffffffffffffffffffffffffffffffffffffffff1681526020019081526020016000208054905060096000838152602001908152602001600020819055505050565b60008183101561121b576040517f08c379a000000000000000000000000000000000000000000000000000000000815260040161121290611aca565b60405180910390fd5b81836112279190611c83565b905092915050565b82805461123b90611d6d565b90600052602060002090601f01602090048101928261125d57600085556112a4565b82601f1061127657805160ff19168380011785556112a4565b828001600101855582156112a4579182015b828111156112a3578251825591602001919060010190611288565b5b5090506112b191906112b5565b5090565b5b808211156112ce5760008160009055506001016112b6565b5090565b60006112e56112e084611bd6565b611ba5565b9050828152602081018484840111156112fd57600080fd5b611308848285611d2b565b509392505050565b60008135905061131f81611e3d565b92915050565b60008135905061133481611e54565b92915050565b600082601f83011261134b57600080fd5b813561135b8482602086016112d2565b91505092915050565b60008135905061137381611e6b565b92915050565b60006020828403121561138b57600080fd5b600061139984828501611310565b91505092915050565b6000806000606084860312156113b757600080fd5b60006113c586828701611310565b93505060206113d686828701611310565b92505060406113e786828701611364565b9150509250925092565b6000806040838503121561140457600080fd5b600061141285828601611310565b925050602061142385828601611364565b9150509250929050565b60006020828403121561143f57600080fd5b600061144d84828501611325565b91505092915050565b60006020828403121561146857600080fd5b600082013567ffffffffffffffff81111561148257600080fd5b61148e8482850161133a565b91505092915050565b6000602082840312156114a957600080fd5b60006114b784828501611364565b91505092915050565b6114c981611cb7565b82525050565b6114d881611cc9565b82525050565b60006114e982611c06565b6114f38185611c11565b9350611503818560208601611d3a565b61150c81611e2c565b840191505092915050565b600061152282611c06565b61152c8185611c22565b935061153c818560208601611d3a565b80840191505092915050565b6000611555602283611c11565b91507f6f776e657220717565727920666f72206e6f6e2d6578697374656e7420746f6b60008301527f656e0000000000000000000000000000000000000000000000000000000000006020830152604082019050919050565b60006115bb601c83611c11565b91507f4552433732313a20746f6b656e20616c7265616479206d696e746564000000006000830152602082019050919050565b60006115fb602083611c11565b91507f4572726f723a204b727970746f6269726420616c7265616479206578697374736000830152602082019050919050565b600061163b602d83611c11565b91507f4572726f723a20455243373231207472616e73666572696e6720746f2074686560008301527f207a65726f2061646472657373000000000000000000000000000000000000006020830152604082019050919050565b60006116a1601c83611c11565b91507f4572726f723a20746f6b656e20646f6573206e6f7420657869737473000000006000830152602082019050919050565b60006116e1603883611c11565b91507f4572726f723a20455243373231207472616e73666572696e6720746f6b656e2060008301527f746865206164647265737320646f6573206e6f74206f776e00000000000000006020830152604082019050919050565b6000611747602183611c11565b91507f4572726f723a20617070726f76616c20746f2063757272656e74206f776e657260008301527f21000000000000000000000000000000000000000000000000000000000000006020830152604082019050919050565b60006117ad601e83611c11565b91507f536166654d6174683a205375627472616374696f6e206f766572666c6f7700006000830152602082019050919050565b60006117ed601e83611c11565b91507f476c6f62616c20696e646578206973206f7574206f6620626f756e64732100006000830152602082019050919050565b600061182d603383611c11565b91507f4572726f723a2063757272656e742063616c6c6572206973206e6f742074686560008301527f206f776e6572206f662074686520746f6b656e000000000000000000000000006020830152604082019050919050565b6000611893601d83611c11565b91507f4f776e657220696e646578206973206f7574206f6620626f756e6473210000006000830152602082019050919050565b60006118d3601983611c11565b91507f4552433136353a20496e76616c696420696e74657266616365000000000000006000830152602082019050919050565b6000611913602383611c11565b91507f4552433732313a206d696e74696e6720746f20746865207a65726f206164647260008301527f65737300000000000000000000000000000000000000000000000000000000006020830152604082019050919050565b61197581611d21565b82525050565b60006119878284611517565b915081905092915050565b60006020820190506119a760008301846114c0565b92915050565b60006020820190506119c260008301846114cf565b92915050565b600060208201905081810360008301526119e281846114de565b905092915050565b60006020820190508181036000830152611a0381611548565b9050919050565b60006020820190508181036000830152611a23816115ae565b9050919050565b60006020820190508181036000830152611a43816115ee565b9050919050565b60006020820190508181036000830152611a638161162e565b9050919050565b60006020820190508181036000830152611a8381611694565b9050919050565b60006020820190508181036000830152611aa3816116d4565b9050919050565b60006020820190508181036000830152611ac38161173a565b9050919050565b60006020820190508181036000830152611ae3816117a0565b9050919050565b60006020820190508181036000830152611b03816117e0565b9050919050565b60006020820190508181036000830152611b2381611820565b9050919050565b60006020820190508181036000830152611b4381611886565b9050919050565b60006020820190508181036000830152611b63816118c6565b9050919050565b60006020820190508181036000830152611b8381611906565b9050919050565b6000602082019050611b9f600083018461196c565b92915050565b6000604051905081810181811067ffffffffffffffff82111715611bcc57611bcb611dfd565b5b8060405250919050565b600067ffffffffffffffff821115611bf157611bf0611dfd565b5b601f19601f8301169050602081019050919050565b600081519050919050565b600082825260208201905092915050565b600081905092915050565b6000611c3882611d21565b9150611c4383611d21565b9250827fffffffffffffffffffffffffffffffffffffffffffffffffffffffffffffffff03821115611c7857611c77611d9f565b5b828201905092915050565b6000611c8e82611d21565b9150611c9983611d21565b925082821015611cac57611cab611d9f565b5b828203905092915050565b6000611cc282611d01565b9050919050565b60008115159050919050565b60007fffffffff0000000000000000000000000000000000000000000000000000000082169050919050565b600073ffffffffffffffffffffffffffffffffffffffff82169050919050565b6000819050919050565b82818337600083830152505050565b60005b83811015611d58578082015181840152602081019050611d3d565b83811115611d67576000848401525b50505050565b60006002820490506001821680611d8557607f821691505b60208210811415611d9957611d98611dce565b5b50919050565b7f4e487b7100000000000000000000000000000000000000000000000000000000600052601160045260246000fd5b7f4e487b7100000000000000000000000000000000000000000000000000000000600052602260045260246000fd5b7f4e487b7100000000000000000000000000000000000000000000000000000000600052604160045260246000fd5b6000601f19601f8301169050919050565b611e4681611cb7565b8114611e5157600080fd5b50565b611e5d81611cd5565b8114611e6857600080fd5b50565b611e7481611d21565b8114611e7f57600080fd5b5056fea26469706673582212205d48b5f1419cb0e9c4b2deee4fdd476af2ec6d0e5fcdec03462305bb44f70ad764736f6c63430008000033",
  "immutableReferences": {},
  "source": "// SPDX-License-Identifier: MIT\r\npragma solidity ^0.8.0;\r\n\r\nimport \"./ERC721Connector.sol\";\r\n\r\ncontract KryptoBird is ERC721Connector {\r\n    // array to store our nft\r\n    string[] public kryptobirdz;\r\n\r\n    mapping(string => bool) _kryptobirdzExists;\r\n\r\n    function mint(string memory _kryptobird) public {\r\n\r\n        require(!_kryptobirdzExists[_kryptobird], \"Error: Kryptobird already exists\");\r\n        kryptobirdz.push(_kryptobird);\r\n        uint _id = kryptobirdz.length - 1;\r\n\r\n        _mint(msg.sender, _id);\r\n\r\n        _kryptobirdzExists[_kryptobird] = true;\r\n    }\r\n\r\n    constructor () ERC721Connector(\"KryptoBird\", \"KBIRDZ\") {\r\n    }\r\n}",
  "sourcePath": "C:\\Users\\Cypherspot\\Documents\\nft-marketplace-starter-kit\\src\\contracts\\KrytoBirdz.sol",
  "compiler": {
    "name": "solc",
    "version": "0.8.0+commit.c7dfd78e.Emscripten.clang"
  },
  "schemaVersion": "3.4.5",
  "updatedAt": "2022-03-16T20:38:04.074Z",
  "networkType": "ethereum",
  "devdoc": {
    "kind": "dev",
    "methods": {
      "balanceOf(address)": {
        "details": "NFTs assigned to the zero address are considered invalid, and this  function throws for queries about the zero address.",
        "params": {
          "_owner": "An address for whom to query the balance"
        },
        "returns": {
          "_0": "The number of NFTs owned by `_owner`, possibly zero"
        }
      },
      "ownerOf(uint256)": {
        "details": "NFTs assigned to zero address are considered invalid, and queries  about them do throw.",
        "params": {
          "_tokenId": "The identifier for an NFT"
        },
        "returns": {
          "_0": "The address of the owner of the NFT"
        }
      },
      "totalSupply()": {
        "returns": {
          "_0": "A count of valid NFTs tracked by this contract, where each one of  them has an assigned and queryable owner not equal to the zero address"
        }
      },
      "transferFrom(address,address,uint256)": {
        "details": "Throws unless `msg.sender` is the current owner, an authorized  operator, or the approved address for this NFT. Throws if `_from` is  not the current owner. Throws if `_to` is the zero address. Throws if  `_tokenId` is not a valid NFT.",
        "params": {
          "_from": "The current owner of the NFT",
          "_to": "The new owner",
          "_tokenId": "The NFT to transfer"
        }
      }
    },
    "version": 1
  },
  "userdoc": {
    "kind": "user",
    "methods": {
      "balanceOf(address)": {
        "notice": "Count all NFTs assigned to an owner"
      },
      "name()": {
        "notice": "A descriptive name for a collection of NFTs in this contract"
      },
      "ownerOf(uint256)": {
        "notice": "Find the owner of an NFT"
      },
      "symbol()": {
        "notice": "An abbreviated name for NFTs in this contract"
      },
      "tokenByIndex(uint256)": {
        "notice": "Enumerate valid NFTs  Throws if `_index` >= `totalSupply()`. A counter less than `totalSupply()` The token identifier for the `_index`th NFT,  (sort order not specified)"
      },
      "tokenOfOwnerByIndex(address,uint256)": {
        "notice": "Enumerate NFTs assigned to an owner Throws if `_index` >= `balanceOf(_owner)` or if `_owner` is the zero address, representing invalid NFTs. An address where we are interested in NFTs owned by them  A counter less than `balanceOf(_owner)` The token identifier for the `_index`th NFT assigned to `_owner`,   (sort order not specified)"
      },
      "totalSupply()": {
        "notice": "Count NFTs tracked by this contract"
      },
      "transferFrom(address,address,uint256)": {
        "notice": "Transfer ownership of an NFT -- THE CALLER IS RESPONSIBLE  TO CONFIRM THAT `_to` IS CAPABLE OF RECEIVING NFTS OR ELSE  THEY MAY BE PERMANENTLY LOST"
      }
    },
    "version": 1
  }
}